:100000002DC10000C3C30000ECC3000015C40000F4
:100010003EC4000067C4000090C40000B9C40000E2
:10002000E2C400004CC100004AC1000048C1000009
:1000300046C100000C94D30B42C1000040C1000037
:100040003EC100003CC100003AC1000038C10000C0
:1000500036C1000034C1000032C10000EFC400000E
:100060002EC100000C946B080C94A10828C100005C
:1000700026C1000024C1000022C1000020C10000F0
:100080001EC100001CC100001AC1000018C1000000
:100090000C94F7080C942D0912C1000010C1000047
:1000A0000EC100000CC100000AC1000008C1000020
:1000B00006C1000004C1000002C1000000C1000030
:1000C000FEC00000FCC000000C94560C0C94830988
:1000D0000C94B909F4C000000C940F0A0C94450A62
:1000E000EEC00000F105F605FB0505060F068806C3
:1000F00019062106290633063D0647065606600600
:1001000088066A0674067E06AC06AF069E06A20640
:10011000A806E606B306B706BD06C106C506CB06A9
:10012000CF06D306E606D906DD06E10605A84CCDC6
:10013000B2D44EB93836A9020C50B9918688083C21
:10014000A6AAAA2ABE000000803F00000A0B0209EE
:100150000C0D0E0807030401000000000000000061
:10016000000000000000000000000000000000008F
:10017000000000000000121110000000000000004C
:10018000000000000000000000000000000000006F
:100190000102102020080810204010204080020199
:1001A000020108040201010204081020408080407E
:1001B000201008040201800402018040201008047D
:1001C000020108040201010204081020408001021B
:1001D00004081020408005050505070508080808E3
:1001E000020202020A0A08080404040401010101CF
:1001F00001010101030303030303030304070707CA
:100200000C0C0C0C0C0C0C0C02020202060606066E
:10021000060606060B0B0B0B0B0B0B0B000022004C
:10022000250028002B002E003100340002010000C0
:10023000050108010B0100002100240027002A000D
:100240002D003000330001010000040107010A0104
:100250000200CA085609E2096E0ADA0A11241FBE12
:10026000CFEFD1E2DEBFCDBF00E00CBF12E0A0E0D7
:10027000B2E0E0E9FFE100E00BBF02C007900D92A1
:10028000A834B107D9F725E0A8E4B2E001C01D9277
:10029000AF32B207E1F711E0CEE2D1E000E006C0F4
:1002A00021970109802FFE010E94BE0FC932D1079C
:1002B00080E00807A9F70E94BD0C0C94C60FA0CEE1
:1002C0001F93CF93DF931F92CDB7DEB7162F61E058
:1002D000812F79837CD5812F7981972F0F90DF91A2
:1002E000CF911F9108950895CF93C82FCB01BA01E4
:1002F0000E94D30D8C2FCF914DC48F929F92AF92BD
:10030000BF92CF92DF92EF92FF92C0900A02D090FC
:100310000B02E0900C02F0900D02609120057091AC
:10032000210580912205909123050E94060E2091BF
:1003300012023091130240911402509115020E9452
:10034000030D9B01AC010E94030D2BED3FE049E43E
:1003500050E40E94B60E20910E0230910F0240919F
:100360001002509111020E946B0D0E94190F9B0107
:10037000AC01C701B6010E94B60EA70196010E940A
:10038000030DAB01BC018091EE049091EF04ACDF52
:10039000C0900A02D0900B02E0900C02F0900D0287
:1003A000609124057091250580912605909127057F
:1003B0000E94060E209116023091170240911802F9
:1003C000509119020E94030D9B01AC010E94030D84
:1003D0002BED3FE049E450E40E94B60E20910E025E
:1003E00030910F0240911002509111020E946B0D4A
:1003F0000E94190F9B01AC01C701B6010E94B60E05
:10040000A70196010E94030DAB01BC018091060576
:100410009091070569DFC0900A02D0900B02E0902E
:100420000C02F0900D0260912805709129058091D1
:100430002A0590912B050E94060E20911A023091F8
:100440001B0240911C0250911D020E94030D9B0152
:10045000AC010E94030D2BED3FE049E450E40E9403
:10046000B60E20910E0230910F0240911002509171
:1004700011020E946B0D0E94190F9B01AC01C70174
:10048000B6010E94B60EA70196010E94030DAB01B2
:10049000BC0180911E0590911F0526DF80912005EB
:1004A00090912105A0912205B0912305BC01CD01B9
:1004B0006F5F7F4F8F4F9F4F609320057093210593
:1004C000809322059093230580900E0290900F0256
:1004D000A0901002B09011020E94060EA501940196
:1004E0000E94670D811108C010922005109221050D
:1004F0001092220510922305C0902405D090250566
:10050000E0902605F09027058FEFC81AD80AE80A70
:10051000F80AC701B6010E94060EA50194010E94C7
:10052000670D882349F0C0922405D0922505E092FA
:100530002605F092270508C0109224051092250583
:100540001092260510922705C0902805D090290505
:10055000E0902A05F0902B058FEFC81AD80AE80A18
:10056000F80AC701B6010E94060EA50194010E9477
:10057000670D882349F0C0922805D0922905E092A2
:100580002A05F0922B0508C0109228051092290523
:1005900010922A0510922B05FF90EF90DF90CF90DC
:1005A000BF90AF909F908F9008952F923F924F925F
:1005B0005F926F927F928F929F92AF92BF92CF92F3
:1005C000DF92EF92FF920F931F93CF93DF931092DE
:1005D000D7041092D604C8EDD4E087E5FE0111924D
:1005E0008A95E9F782E3A82EAE8293E3B92EBF8203
:1005F00024E3222E288635E3332E398646E3842EE3
:100600008A8657E3952E9B86F8E3FC8789E38D87DE
:1006100061E3D62EDE86E0E3EF87D88AD98ADA8ACC
:10062000AB8ADC8ABD8ACC24C394C0922C05412CB1
:10063000512C3201439449825A826B827C82E12C94
:10064000F12C8701A801970166E070E080E090E05E
:1006500037DE9F8B8E8B47DECD82AE8EBF8E28A27B
:1006600039A28AA29BA2F8E3FCA389E38DA3DEA2B0
:10067000E0E3EFA3D8A6D9A6DAA6ABA6DCA6BDA672
:10068000188EC0922D051D8E498E5A8E6B8E7C8ED3
:10069000A801970165E070E080E090E011DE9FA77F
:1006A0008EA721DECD8EAEAABFAA28AE39AE8AAE05
:1006B0009BAEF8E3FCAF89E380931505D092160555
:1006C000E0E3E0931705D0921805D0921905D09277
:1006D0001A05A0921B05D0921C05B0921D0518AA00
:1006E000C0922E051DAA49AA5AAA6BAA7CAAA801E3
:1006F000970163E070E080E090E0E2DD90931F05F9
:1007000080931E05F0DDCDAA1092200510922105E0
:1007100010922205109223051092240510922505AF
:10072000109226051092270510922805109229058F
:1007300010922A0510922B05DF91CF911F910F91F6
:10074000FF90EF90DF90CF90BF90AF909F908F90F1
:100750007F906F905F904F903F902F900895809181
:10076000D804811103C081E08093D8048091F00403
:10077000811103C081E08093F0048091080581110C
:1007800003C081E080930805089508951F920F9299
:100790000FB60F9211240BB60F922F933F934F93E6
:1007A0005F936F937F938F939F93AF93BF93EF93D9
:1007B000FF93E0912202F09123021995FF91EF91AE
:1007C000BF91AF919F918F917F916F915F914F9169
:1007D0003F912F910F900BBE0F900FBE0F901F9067
:1007E00018951F920F920FB60F9211240BB60F920D
:1007F0002F933F934F935F936F937F938F939F9329
:10080000AF93BF93EF93FF93E0912402F091250201
:100810001995FF91EF91BF91AF919F918F917F912A
:100820006F915F914F913F912F910F900BBE0F9061
:100830000FBE0F901F9018951F920F920FB60F9238
:1008400011240BB60F922F933F934F935F936F93A7
:100850007F938F939F93AF93BF93EF93FF93E09119
:100860002602F09127021995FF91EF91BF91AF9168
:100870009F918F917F916F915F914F913F912F91B8
:100880000F900BBE0F900FBE0F901F9018951F92E8
:100890000F920FB60F9211240BB60F922F933F9326
:1008A0004F935F936F937F938F939F93AF93BF9378
:1008B000EF93FF93E0912802F09129021995FF919F
:1008C000EF91BF91AF919F918F917F916F915F91C8
:1008D0004F913F912F910F900BBE0F900FBE0F9035
:1008E0001F9018951F920F920FB60F9211240BB6FE
:1008F0000F922F933F934F935F936F937F938F93B9
:100900009F93AF93BF93EF93FF93E0911E02F091FB
:100910001F021995FF91EF91BF91AF919F918F9118
:100920007F916F915F914F913F912F910F900BBEEF
:100930000F900FBE0F901F9018951F920F920FB639
:100940000F9211240BB60F922F933F934F935F9307
:100950006F937F938F939F93AF93BF93EF93FF9387
:10096000E0912002F09121021995FF91EF91BF9142
:10097000AF919F918F917F916F915F914F913F9137
:100980002F910F900BBE0F900FBE0F901F901895D8
:100990001F920F920FB60F9211240BB60F922F9346
:1009A0003F934F935F936F937F938F939F93AF93F7
:1009B000BF93EF93FF93E0912A02F0912B021995D8
:1009C000FF91EF91BF91AF919F918F917F916F9127
:1009D0005F914F913F912F910F900BBE0F900FBEE3
:1009E0000F901F9018951F920F920FB60F9211241F
:1009F0000BB60F922F933F934F935F936F937F9319
:100A00008F939F93AF93BF93EF93FF93E0912C024B
:100A1000F0912D021995FF91EF91BF91AF919F91A8
:100A20008F917F916F915F914F913F912F910F9097
:100A30000BBE0F900FBE0F901F9018951F920F9234
:100A40000FB60F9211242F933F938F939F93AF93E1
:100A5000BF938091490290914A02A0914B02B091BC
:100A60004C023091480223E0230F2D3720F40196E9
:100A7000A11DB11D05C026E8230F0296A11DB11DC1
:100A8000209348028093490290934A02A0934B021C
:100A9000B0934C0280914D0290914E02A0914F0272
:100AA000B09150020196A11DB11D80934D0290930B
:100AB0004E02A0934F02B0935002BF91AF919F910D
:100AC0008F913F912F910F900FBE0F901F9018950F
:100AD000789484B5826084BD84B5816084BD85B519
:100AE000826085BD85B5816085BDEEE6F0E08081E0
:100AF00081608083E1E8F0E0108280818260808301
:100B0000808181608083E0E8F0E080818160808383
:100B1000E1EBF0E0808184608083E0EBF0E08081B5
:100B200081608083E1E9F0E0808182608083808160
:100B300081608083E0E9F0E0808181608083E1EA88
:100B4000F0E0808182608083808181608083E0EA40
:100B5000F0E0808181608083E1E2F1E08081826069
:100B60008083808181608083E0E2F1E08081816028
:100B70008083EAE7F0E08081846080838081826006
:100B800080838081816080838081806880831092EF
:100B9000C10008951F93CF93DF93182FEB0161E0FD
:100BA00016D1209711F460E004C0CF3FD10531F495
:100BB00061E0812FDF91CF911F9145C1E12FF0E0DE
:100BC000E65BFE4FE4914E2F50E0FA013197E2319F
:100BD000F10508F09DC08827EE58FF4F8F4F0C9409
:100BE000BE0F84B5806884BDC7BD97C084B58062E0
:100BF00084BDC8BD92C080918000806880938000D1
:100C0000D0938900C093880088C080918000806262
:100C100080938000D0938B00C0938A007EC0809127
:100C20008000886080938000D0938D00C0938C00FA
:100C300074C08091B00080688093B000C093B3000E
:100C40006CC08091B00080628093B000C093B4000B
:100C500064C080919000806880939000D093990048
:100C6000C09398005AC08091900080628093900059
:100C7000D0939B00C0939A0050C0809190008860F0
:100C800080939000D0939D00C0939C0046C08091BB
:100C9000A00080688093A0008091A0008F7B80934B
:100CA000A000D093A900C093A80037C08091A000F5
:100CB00080628093A000D093AB00C093AA002DC0A7
:100CC0008091A00088608093A000D093AD00C09375
:100CD000AC0023C080912001806880932001D093D4
:100CE0002901C093280119C080912001806280935E
:100CF0002001D0932B01C0932A010FC080912001C5
:100D0000886080932001D0932D01C0932C0105C0F1
:100D1000C038D1050CF04CCF46CFDF91CF911F9159
:100D2000089590E0FC013197E231F10508F04EC0E2
:100D30008827EC57FF4F8F4F0C94BE0F8091800097
:100D40008F7703C0809180008F7D8093800008950D
:100D500080918000877FF9CF84B58F7702C084B5FA
:100D60008F7D84BD08958091B0008F7703C08091FE
:100D7000B0008F7D8093B0000895809190008F77B0
:100D800007C0809190008F7D03C080919000877F85
:100D90008093900008958091A0008F7707C0809184
:100DA000A0008F7D03C08091A000877F8093A0006A
:100DB0000895809120018F7707C0809120018F7D59
:100DC00003C080912001877F809320010895CF93F5
:100DD000DF9390E0FC01E057FE4F2491FC01EA52C2
:100DE000FE4F8491882361F190E0880F991FFC01E8
:100DF000EA5CFD4FC591D491FC01E45EFD4FA591E5
:100E0000B491611109C09FB7F8948881209582231D
:100E10008883EC912E230BC0623061F49FB7F89465
:100E20003881822F809583238883EC912E2B2C93FD
:100E30009FBF06C08FB7F894E8812E2B28838FBF01
:100E4000DF91CF9108951F93CF93DF93282F30E048
:100E5000F901E65BFE4F8491F901E057FE4FD49112
:100E6000F901EA52FE4FC491CC23C1F0162F811133
:100E700058DFEC2FF0E0EE0FFF1FE45EFD4FA59171
:100E8000B4918FB7F894111105C09C91ED2FE095A6
:100E9000E92302C0EC91ED2BEC938FBFDF91CF9152
:100EA0001F910895FC01918D228D892F90E0805C27
:100EB0009F4F821B91098F7399270895FC01918D93
:100EC000828D981731F0828DE80FF11D858D90E0AD
:100ED00008958FEF9FEF0895FC01918D828D9817F3
:100EE00061F0828DDF01A80FB11D5D968C91928D0E
:100EF0009F5F9F73928F90E008958FEF9FEF08950B
:100F0000FC01848DDF01A80FB11DA35ABF4F2C91A6
:100F1000848D90E001968F739927848FA689B78975
:100F20002C93A089B1898C9180648C93938D848D4E
:100F3000981306C00288F389E02D80818F7D80831D
:100F40000895CF93DF93EC01888D8823C1F0EA895F
:100F5000FB89808185FD05C0A889B9898C9186FDB2
:100F60000EC00FB607FCF5CF808185FFF2CFA889B0
:100F7000B9898C9185FFEDCFCE01C2DFE8CFDF913B
:100F8000CF910895EF92FF920F931F93CF93DF932A
:100F9000EC0181E0888F9B8D8C8D981305C0E889CA
:100FA000F989808185FD23C0F62E0B8D10E00F5F3F
:100FB0001F4F0F731127E02E8C8DE8120BC00FB658
:100FC00007FCFACFE889F989808185FFF5CFCE014A
:100FD00097DFF2CF8B8DFE01E80FF11DE35AFF4F33
:100FE000F0820B8FEA89FB898081806207C0EE89DD
:100FF000FF896083E889F98980818064808381E04A
:1010000090E0DF91CF911F910F91FF90EF900895A5
:10101000CF92DF92EF92FF921F93CF93DF93EC0179
:101020006A017B01122FE889F98982E080834115EA
:10103000514E61057105A9F060E079E08DE390E023
:10104000A701960179D7DA01C9010197A109B10970
:10105000B695A79597958795AC01411580E15807FE
:10106000A0F0E889F989108260E874E88EE190E0E8
:10107000A701960161D7BA01A9014150510961093F
:1010800071097695679557954795EC85FD85508351
:10109000EE85FF854083188EEC89FD891083EA89EF
:1010A000FB89808180618083EA89FB8980818860F7
:1010B0008083EA89FB89808180688083EA89FB8953
:1010C00080818F7D8083DF91CF911F91FF90EF9082
:1010D000DF90CF9008951F920F920FB60F921124B8
:1010E0000BB60F922F938F939F93EF93FF93E09103
:1010F0006102F09162028081E0916702F0916802E2
:1011000082FD12C0908180916A028F5F8F7320915F
:101110006B02821751F0E0916A02F0E0EF5AFD4F46
:10112000958F80936A0201C08081FF91EF919F911A
:101130008F912F910F900BBE0F900FBE0F901F90AD
:1011400018951F920F920FB60F9211240BB60F92A3
:101150002F933F934F935F936F937F938F939F93BF
:10116000AF93BF93EF93FF9381E592E0C9DEFF91C8
:10117000EF91BF91AF919F918F917F916F915F910F
:101180004F913F912F910F900BBE0F900FBE0F907C
:101190001F901895E1E5F2E01382128288EE93E049
:1011A000A0E0B0E084839583A683B78385E392E0D3
:1011B0009183808385EC90E09587848784EC90E030
:1011C0009787868780EC90E0918B808B81EC90E014
:1011D000938B828B82EC90E0958B848B86EC90E0F5
:1011E000978B868B118E128E138E148E08951F92FC
:1011F0000F920FB60F9211240BB60F922F938F936D
:101200009F93EF93FF93E091FE02F091FF028081A4
:10121000E0910403F091050382FD12C0908180915A
:1012200007038F5F8F7320910803821751F0E091BD
:101230000703F0E0E251FD4F958F8093070301C053
:101240008081FF91EF919F918F912F910F900BBE15
:101250000F900FBE0F901F9018951F920F920FB610
:101260000F9211240BB60F922F933F934F935F93DE
:101270006F937F938F939F93AF93BF93EF93FF935E
:101280008EEE92E03DDEFF91EF91BF91AF919F9185
:101290008F917F916F915F914F913F912F910F901F
:1012A0000BBE0F900FBE0F901F901895EEEEF2E060
:1012B0001382128288EE93E0A0E0B0E084839583ED
:1012C000A683B78385E392E0918380838DEC90E0E1
:1012D000958784878CEC90E09787868788EC90E0F0
:1012E000918B808B89EC90E0938B828B8AEC90E0E1
:1012F000958B848B8EEC90E0978B868B118E128E63
:10130000138E148E08951F920F920FB60F92112410
:101310000BB60F922F938F939F93EF93FF93E091D0
:101320009B03F0919C038081E091A103F091A203C3
:1013300082FD12C090818091A4038F5F8F732091F2
:10134000A503821751F0E091A403F0E0E557FC4FAC
:10135000958F8093A40301C08081FF91EF919F91AD
:101360008F912F910F900BBE0F900FBE0F901F907B
:1013700018951F920F920FB60F9211240BB60F9271
:101380002F933F934F935F936F937F938F939F938D
:10139000AF93BF93EF93FF938BE893E0B1DDFF91A1
:1013A000EF91BF91AF919F918F917F916F915F91DD
:1013B0004F913F912F910F900BBE0F900FBE0F904A
:1013C0001F901895EBE8F3E01382128288EE93E009
:1013D000A0E0B0E084839583A683B78385E392E0A1
:1013E0009183808385ED90E09587848784ED90E0FC
:1013F0009787868780ED90E0918B808B81ED90E0E0
:10140000938B828B82ED90E0958B848B86ED90E0C0
:10141000978B868B118E128E138E148E08951F92C9
:101420000F920FB60F9211240BB60F922F938F933A
:101430009F93EF93FF93E0913804F09139048081FA
:10144000E0913E04F0913F0482FD12C090818091B2
:1014500041048F5F8F7320914204821751F0E09115
:101460004104F0E0E85DFB4F958F8093410401C09B
:101470008081FF91EF919F918F912F910F900BBEE3
:101480000F900FBE0F901F9018951F920F920FB6DE
:101490000F9211240BB60F922F933F934F935F93AC
:1014A0006F937F938F939F93AF93BF93EF93FF932C
:1014B00088E294E025DDFF91EF91BF91AF919F917C
:1014C0008F917F916F915F914F913F912F910F90ED
:1014D0000BBE0F900FBE0F901F901895E8E2F4E03E
:1014E0001382128288EE93E0A0E0B0E084839583BB
:1014F000A683B78385E392E09183808385E391E0BF
:101500009587848784E391E09787868780E391E0DD
:10151000918B808B81E391E0938B828B82E391E0CE
:10152000958B848B86E391E0978B868B118E128E40
:10153000138E148E08958F929F92AF92BF92CF9286
:10154000DF92EF92FF920F931F93CF93DF937C0173
:101550008B016C0182E0C80ED11C4701E5E08E0EC4
:10156000911CC0E0D0E0F60161916F014AE050E0CB
:10157000C801C5D05C016EE2C80167D08A0D9B1D11
:10158000C80FD91FC814D90471F74AE050E0F70119
:101590006581C801B4D08C0F9D1FDF91CF911F9141
:1015A0000F91FF90EF90DF90CF90BF90AF909F9002
:1015B0008F900895E5ECF4E085E492E091838083D8
:1015C00012821382148215820895CF92DF92EF92D5
:1015D000FF920F931F93CF93DF936C017A018B01DE
:1015E000C0E0D0E0CE15DF0589F0D8016D918D0106
:1015F000D601ED91FC910190F081E02DC601199585
:10160000892B11F47E0102C02196ECCFC701DF9136
:10161000CF911F910F91FF90EF90DF90CF900895A1
:101620006115710579F0FB0101900020E9F7319710
:10163000AF01461B570BDC01ED91FC910280F38159
:10164000E02D199480E090E00895DC01ED91FC918B
:101650000190F081E02D19944F925F926F927F92EA
:10166000EF92FF920F931F93CF93DF93CDB7DEB727
:10167000A1970FB6F894DEBF0FBECDBF7C01FA0173
:10168000CB0119A2223008F42AE08E010F5D1F4F12
:10169000422E512C612C712CBF01A30192014CD41C
:1016A000F901CA01015011096A3014F4605D01C0EA
:1016B000695CD8016C93232B242B252B69F7B80187
:1016C000C701AEDFA1960FB6F894DEBF0FBECDBF47
:1016D000DF91CF911F910F91FF90EF907F906F90CE
:1016E0005F904F9008952115310541F4DC01ED9193
:1016F000FC910190F081E02D642F1994ADCF9A01F7
:10170000462F50E060E070E0EECF8230A9F028F480
:10171000882349F0813051F00895843021F1E8F0B8
:10172000853039F1089510926E00089580916F0010
:101730008D7F80936F000895809170008D7F8093DE
:10174000700081E08093B0008091B100887F846058
:101750008093B1001092B3000895809171008D7F45
:10176000809371000895809172008D7F8093720044
:101770000895809173008D7F809373000895CF93B7
:10178000C82F80912E028C1307C0E0E5F2E0E491AF
:101790008FEF80932E0201C0EFEF8E2FB6DF60E057
:1017A0008C2FCF9150CB1F920F920FB60F92112416
:1017B0000BB60F922F933F934F935F936F937F934B
:1017C0008F939F93AF93BF93EF93FF938091CE043A
:1017D0009091CF04A091D004B091D104892B8A2B91
:1017E0008B2B51F18091CB04E091CC04F091CD048E
:1017F0009081892780838091CE049091CF04A0911D
:10180000D004B091D104181619061A061B06BCF4B0
:101810008091CE049091CF04A091D004B091D104D6
:101820000197A109B1098093CE049093CF04A093AE
:10183000D004B093D10403C080912E02A0DFFF91A9
:10184000EF91BF91AF919F918F917F916F915F9138
:101850004F913F912F910F900BBE0F900FBE0F90A5
:101860001F90189540E855E260E070E080E090E05D
:1018700000C08130910571F01CF4892B39F0089576
:101880008230910559F0039769F0089526E081E5CB
:1018900092E00BC026E08EEE92E007C026E08BE8D7
:1018A00093E003C026E088E294E0B2CB1F920F924F
:1018B0000FB60F9211240BB60F922F933F934F93B5
:1018C0005F936F937F938F939F93AF93BF93EF93A8
:1018D000FF9386E997EE909325018093240134D0FD
:1018E000FF91EF91BF91AF919F918F917F916F91F8
:1018F0005F914F913F912F910F900BBE0F900FBEB4
:101900000F901F90189586E997EE9093250180938C
:101910002401A3E7B0E08C918E7F8C93E0E2F1E0AC
:1019200080818C7F8083E1E2F1E08081877E80830B
:1019300080818460808380818C7F80838C918160B2
:101940008C93089581E008958091D30491E0980FDD
:101950009093D304882339F021E030E03093D5040C
:101960002093D40407C078940E947D01F89480915C
:10197000D30481508093D30408950F931F93CF9382
:10198000DF931F92CDB7DEB781E08983A1D86ADFEC
:1019900000912F0210913002F801118210820E94F2
:1019A000D502B1DF81E0F80120813181232B09F0DC
:1019B00080E089837894789489818823C1F081E0DC
:1019C000F80120813181232B09F480E08093D20437
:1019D0009091D20481E0911180E0898389818823EC
:1019E00011F0B0DF02C080E090E08983E5CF0E9473
:1019F000AF03F89480E090E00F90DF91CF911F91BA
:101A00000F9108955058BB27AA270ED075C166D1F3
:101A100030F06BD120F031F49F3F11F41EF45BC124
:101A20000EF4E095E7FB51C1E92F77D180F3BA17A7
:101A3000620773078407950718F071F49EF58FC14C
:101A40000EF4E0950B2EBA2FA02D0B01B9019001D9
:101A50000C01CA01A0011124FF27591B99F0593F1D
:101A600050F4503E68F11A16F040A22F232F342F65
:101A70004427585FF3CF469537952795A795F040B3
:101A80005395C9F77EF41F16BA0B620B730B840BC8
:101A9000BAF09150A1F0FF0FBB1F661F771F881F80
:101AA000C2F70EC0BA0F621F731F841F48F48795D8
:101AB00077956795B795F7959E3F08F0B3CF9395C7
:101AC000880F08F09927EE0F979587950895D9D03C
:101AD00008F481E008950CD00FC107D140F0FED08A
:101AE00030F021F45F3F19F0F0C0511139C1F3C05B
:101AF00014D198F39923C9F35523B1F3951B550BD2
:101B0000BB27AA2762177307840738F09F5F5F4FD0
:101B1000220F331F441FAA1FA9F333D00E2E3AF011
:101B2000E0E830D091505040E695001CCAF729D02B
:101B3000FE2F27D0660F771F881FBB1F261737077A
:101B40004807AB07B0E809F0BB0B802DBF01FF27AA
:101B500093585F4F2AF09E3F510568F0B6C000C110
:101B60005F3FECF3983EDCF3869577956795B795E4
:101B7000F7959F5FC9F7880F911D9695879597F9FF
:101B80000895E1E0660F771F881FBB1F6217730778
:101B90008407BA0720F0621B730B840BBA0BEE1F8D
:101BA00088F7E095089504D06894B111D9C00895DC
:101BB000BCD088F09F5790F0B92F9927B751A0F06B
:101BC000D1F0660F771F881F991F1AF0BA95C9F7D1
:101BD00012C0B13081F0C3D0B1E00895C0C0672F0A
:101BE000782F8827B85F39F0B93FCCF38695779581
:101BF0006795B395D9F73EF490958095709561956A
:101C00007F4F8F4F9F4F0895E89409C097FB3EF494
:101C100090958095709561957F4F8F4F9F4F992339
:101C2000A9F0F92F96E9BB279395F69587957795B7
:101C30006795B795F111F8CFFAF4BB0F11F460FF77
:101C40001BC06F5F7F4F8F4F9F4F16C0882311F0CF
:101C500096E911C0772321F09EE8872F762F05C0E3
:101C6000662371F096E8862F70E060E02AF09A957E
:101C7000660F771F881FDAF7880F9695879597F973
:101C80000895990F0008550FAA0BE0E8FEEF16160D
:101C90001706E807F907C0F012161306E407F50760
:101CA00098F0621B730B840B950B39F40A2661F0D4
:101CB000232B242B252B21F408950A2609F4A14077
:101CC000A6958FEF811D811D089597F99F6780E884
:101CD00070E060E008959FEF80EC089500240A947E
:101CE0001616170618060906089500240A941216F7
:101CF0001306140605060895092E0394000C11F42A
:101D0000882352F0BB0F40F4BF2B11F460FF04C0D6
:101D10006F5F7F4F8F4F9F4F089557FD9058440F2F
:101D2000551F59F05F3F71F04795880F97FB991F3A
:101D300061F09F3F79F087950895121613061406F7
:101D4000551FF2CF4695F1DF08C016161706180684
:101D5000991FF1CF86957105610508940895E8945F
:101D6000BB2766277727CB0197F908950BD0C4CFFF
:101D7000B5DF28F0BADF18F0952309F0A6CFABCF76
:101D80001124EECFCADFA0F3959FD1F3950F50E059
:101D9000551F629FF001729FBB27F00DB11D639F1D
:101DA000AA27F00DB11DAA1F649F6627B00DA11DC3
:101DB000661F829F2227B00DA11D621F739FB00D69
:101DC000A11D621F839FA00D611D221F749F3327D9
:101DD000A00D611D231F849F600D211D822F762F72
:101DE0006A2F11249F5750408AF0E1F088234AF06F
:101DF000EE0FFF1FBB1F661F771F881F91505040BB
:101E0000A9F79E3F510570F060CFAACF5F3FECF37A
:101E1000983EDCF3869577956795B795F795E795A6
:101E20009F5FC1F7FE2B880F911D9695879597F9B7
:101E300008959F9305D00F9007FCEE5F28C04BCF0D
:101E400074DFE8F3E894E0E0BB279F57F0F02AED59
:101E50003FE049EC06C0EE0FBB0F661F771F881FDF
:101E600028F0B23A62077307840728F0B25A620B6F
:101E7000730B840BE3959A9572F7803830F49A953A
:101E8000BB0F661F771F881FD2F7904813C0EF93D0
:101E9000E0FF06C0A2EA2AED3FE049EC5FEBC4DDBB
:101EA0002BDF0F90039401FC9058ECE2F1E00EC0A0
:101EB0009F3F31F0915020F4879577956795B795BE
:101EC000880F911D9695879597F908959F938F9305
:101ED0007F936F93FF93EF939B01AC0147DFEF91EB
:101EE000FF9105D02F913F914F915F913FCFDF93AD
:101EF000CF931F930F93FF92EF92DF927B018C01A0
:101F0000689405C0DA2EEF013DDFFE01E894A5914B
:101F10002591359145915591AEF3EF0185DDFE0197
:101F20009701A801DA9479F7DF90EF90FF900F9175
:101F30001F91CF91DF910895A1E21A2EAA1BBB1B1E
:101F4000FD010DC0AA1FBB1FEE1FFF1FA217B30785
:101F5000E407F50720F0A21BB30BE40BF50B661F9B
:101F6000771F881F991F1A9469F76095709580955F
:101F700090959B01AC01BD01CF010895EE0FFF1FAD
:101F8000881F8BBF0790F691E02D1994F894FFCF2E
:101F900000002F058000010000000000FA42000050
:101FA000C842000070430000F04200000000C5037A
:101FB000C503C503C503C503C503C503C503FFD6D4
:101FC0000400000000C207E50A52076C075E07A183
:081FD00007000000009B0A005D
:00000001FF
