:100000009CC100000C9465110C9490110C94BB11D0
:100010000C94E6110C9411120C943C120C9467127F
:100020000C949212BBC10000B9C10000B7C100001E
:10003000B5C100000C943119B1C10000AFC100007E
:10004000ADC10000ABC10000A9C10000A7C1000004
:10005000A5C10000A3C10000A1C100000C94BD1205
:100060009DC100000C94C8150C94FE1597C10000AA
:1000700095C1000093C1000091C100008FC1000034
:100080008DC100008BC1000089C1000087C1000044
:100090000C9454160C948A1681C100007FC1000094
:1000A0007DC100007BC1000079C1000077C1000064
:1000B00075C1000073C1000071C100006FC1000074
:1000C0006DC100006BC100000C94B4190C94E016D3
:1000D0000C94161763C100000C946C170C94A217B3
:1000E0005DC1000007140A14F913FD130314411431
:1000F0000E14121418141C14201426142A142E146E
:100100004114341438143C14BD217B23E523E82327
:10011000BF22F2227C219D216021C223B123BE2374
:10012000E823E823E8234B2100000A0B02090C0D09
:100130000E0807030401000000000000000000009A
:1001400000000000000000000000000000000000AF
:10015000000000001211100000000000000000006C
:10016000000000000000000000000000000001028C
:1001700010202008081020401020408002010201B9
:100180000804020101020408102040808040201071
:1001900008040201800402018040201008040201CA
:1001A0000804020101020408102040800102040832
:1001B000102040800505050507050808080802020B
:1001C00002020A0A080804040404010101010101F1
:1001D00001010303030303030303040707070C0CD4
:1001E0000C0C0C0C0C0C020202020606060606069B
:1001F00006060B0B0B0B0B0B0B0B00002200250054
:1002000028002B002E0031003400020100000501FF
:1002100008010B0100002100240027002A002D0006
:100220003000330001010000040107010A0102004F
:100230001D3A2774694E53E8F5D2CF9C81A6BBCDF9
:10024000D0F7EAB9A4839E25381F02514C6B7687FC
:100250009ABDA0F3EEC9D46F7255481B06213C4AE3
:1002600057706D3E230419A2BF9885D6CBECF113CD
:100270000E2934677A5D40FBE6C1DC8F92B5A8DEBB
:10028000C3E4F9AAB7908D362B0C11425F786594C0
:1002900089AEB3E0FDDAC77C61465B0815322F59A1
:1002A00044637E2D30170AB1AC8B96C5D8FFE22689
:1002B0003B1C01524F6875CED3F4E9BAA7809DEB81
:1002C000F6D1CC9F82A5B8031E3924776A4D50A180
:1002D000BC9B86D5C8EFF24954736E3D20071A6C5B
:1002E00071564B1805223F8499BEA3F0EDCAD7354D
:1002F000280F12415C7B66DDC0E7FAA9B4938EF843
:10030000E5C2DF8C91B6AB100D2A3764795E43B23B
:10031000AF8895C6DBFCE15A47607D2E3314097F18
:100320006245580B16312C978AADB0E3FED9C40054
:100330002716B3163F17CB17371811241FBECFEF60
:10034000D1E2DEBFCDBF00E00CBF13E0A0E0B2E021
:10035000E4E6F2E500E00BBF02C007900D92A6377D
:10036000B107D9F727E0A6E7B3E001C01D92AC3290
:10037000B207E1F711E0CDE9D1E000E006C0219736
:100380000109802FFE010E94B427C839D10780E0FF
:100390000807A9F70E9470250C94302931CECF921E
:1003A000DF92EF92FF926B017C0186E3C816D104C5
:1003B000E104F10428F486E3C80ED11CE11CF11C11
:1003C00060E08C2D0E944214C601FF90EF90DF90F8
:1003D000CF9008950895CF93DF93EB010E94C71348
:1003E00099838883DF91CF91089508958F929F928A
:1003F000AF92BF92CF92DF92EF92FF920F931F9333
:10040000C0906E02D0906F02E0907002F090710286
:10041000A701960160912307709124078091250719
:10042000909126070E946226882341F0C0922307FC
:10043000D0922407E0922507F092260780912107A9
:1004400090912207D2DF43E050E069E077E08091AD
:10045000210790912207BFDF81E090E00E941111F7
:100460004091F4065091F5066091F6067091F706FA
:1004700080E090E00E940D118090040790900507A5
:10048000A0900607B090070720E030E040E85FEB5F
:10049000C501B4010E946226882331F1C090F406A0
:1004A000D090F506E090F606F090F706A7019601C9
:1004B000C501B4010E94FD254B015C0120E030E044
:1004C00040E054E3C701B6010E941C279B01AC0128
:1004D000C501B4010E941827181634F088E892E08C
:1004E0009093DF068093DE0680910807882331F021
:1004F00088E892E09093DF068093DE068091F8060C
:100500009091F906A091FA06B091FB06BC01CD01CD
:100510006F5F7F4F8F4F9F4F6093F8067093F90680
:100520008093FA069093FB0661157105810591058C
:10053000A1F40091FC061091FD062091FE06309179
:10054000FF060F5F1F4F2F4F3F4F0093FC06109386
:10055000FD062093FE063093FF06C0900007D09062
:100560000107E0900207F09003070E946626A701AA
:1005700096010E941C274B015C016091FC06709162
:10058000FD068091FE069091FF060E946626A70157
:1005900096010E941C2720E030E040E85FE40E94C2
:1005A0001C279B01AC01C501B4010E94FE2560938C
:1005B000F4067093F5068093F6069093F7061F9164
:1005C0000F91FF90EF90DF90CF90BF90AF909F90F2
:1005D0008F9008951F93CF93DF93EEEDF6E08BE2BB
:1005E000DF011D928A95E9F780E090E0A0E8BFEB7B
:1005F00086A397A3A0A7B1A78AE097EDA3E2BCE3E7
:1006000082A393A3A4A3B5A382E790E2A6E7BEE5E5
:1006100084839583A683B78384ED98EFA3E5BCE339
:1006200080879187A287B3878AEC9CE3ADEBB2E524
:1006300084879587A687B78789E49DEDA8E9B3ED00
:10064000808B918BA28BB38BAEE8B3E0B383A28394
:10065000CAE8D3E01196DC93CE9383E193E09983CB
:1006600088839B838A8382EF96E015969C938E9372
:10067000149782EE96E013969C938E93129784EFD4
:1006800096E017969C938E93169710920A071092F5
:100690000907CBE0D7E08DE1DE011D928A95E9F7ED
:1006A00026E733E084E1D9011D928A95E9F7358B7D
:1006B000248B8FE090E0F9019183808380E592E0C4
:1006C0009383828382E392E09583848386E192E040
:1006D000978386838AE092E09187808722E32E8346
:1006E00093E39F8384E3888785E3898786E38A870A
:1006F00087E38B8788E38C8789E38D8781E38E8707
:1007000030E33F87888B898B8A8B2B8B8C8B9D8BDF
:1007100011E01C8F80916E0290916F02A091700287
:10072000B0917102888F998FAA8FBB8F81E090E082
:10073000A0E0B0E089839A83AB83BC8360E070E083
:10074000CB012DDE9F8B8E8B20E030E0A90160E095
:1007500070E040DE1D83DF91CF911F91089580915D
:100760000B07811103C081E080930B070895EF927E
:10077000FF920F931F93CF93DF93DC01EA01F901FE
:1007800014968D919C91159712960D911C9113972B
:10079000080F191F2881398118964D915C9119977E
:1007A0004217530728F04D915C911197452B39F171
:1007B0007801E21AF30A18964D915C911997481B3B
:1007C000590B4E0D5F1D4617570794F1A901460FAF
:1007D000571F40175107E0F0F182E08233832283F4
:1007E0006E197F0975836483161617061CF4382F5B
:1007F000292F02C030E020E03683278313C01896EB
:100800008D919C911997821B930B8617970784F003
:100810007183608333832283158214821782168248
:1008200088819981680F791F7983688380E001C08E
:1008300081E0DF91CF911F910F91FF90EF9008958C
:10084000CF92DF92EF92FF92CF93DF936B017C0107
:1008500084E48C9DE0018D9DD00D1124C656DC4FA3
:100860008AA99BA9009721F00E947F281BAA1AAA97
:1008700084E48C9DF0018D9DF00D1124E656FC4F13
:1008800086A997A9009711F00E947F2884E48C9D87
:10089000F0018D9DF00D1124E656FC4F138A128A4B
:1008A000168A178A108E118E128E138E148E158E44
:1008B000168E178E10A211A281E090E093A382A35E
:1008C00015A214A216A217A210A611A613A612A66C
:1008D00015A614A616A617A610AA11AA13AA12AA3C
:1008E00015AA14AA17AA16AA11AE10AE12AE13AE0C
:1008F00014AE15AEDF01DE961D921D921D921C9264
:100900001397EE5BFF4F11821082DF91CF91FF9022
:10091000EF90DF90CF9008950F931F93CF93DF93C5
:10092000EB01DC018D919C91FC01A681B781E881EE
:10093000F98123E0EE0FFF1F2A95E1F712962D9122
:100940003C911397E20FF31F00811181AC85BD85A7
:100950009D01220F331FDC0112968D919C911397FC
:10096000D901A80FB91F8D919C9124813581232B2A
:1009700019F461E070E002C062E070E0689F9001ED
:10098000699F300D789F300D112488859985289FA7
:10099000B001299F700D389F700D1124EC81FD81ED
:1009A0002E9FC0012F9F900D3E9F900D1124800F10
:1009B000911FFA019183808373836283DF91CF91CA
:1009C0001F910F9108952F923F924F925F926F92D5
:1009D0007F928F929F92AF92BF92CF92DF92EF92CF
:1009E000FF920F931F93CF93DF9300D000D0CDB72A
:1009F000DEB7DC011496ED91FC9115970190F08122
:100A0000E02D808591859A838983A281B381BC83FF
:100A1000AB83FB0181909190A190B1908F01C12C8B
:100A2000D12C7601C814D904EA04FB040CF05FC091
:100A3000D80114964D905D906D907C901797189604
:100A40004D915D916D917C911B97F8017096FE839D
:100A5000ED83F801A081B18183E0AA0FBB1F8A95C5
:100A6000E1F7E981FA8182819381A80FB91F2D9066
:100A70003C901197F80124853585220F331F8B8117
:100A80009C81280F391FF9010081118114968D91E5
:100A90009C911597892B19F481E090E002C082E0C7
:100AA00090E0809F9001819F300D909F300D112428
:100AB000249F8001259F100D349F100D1124249D2B
:100AC000C001259D900D349D900D1124A8016D81CC
:100AD0007E81820D931D0E9417298D819E81080FB2
:100AE000191F9FEFC91AD90AE90AF90A9BCF26965E
:100AF0000FB6F894DEBF0FBECDBFDF91CF911F912F
:100B00000F91FF90EF90DF90CF90BF90AF909F90AC
:100B10008F907F906F905F904F903F902F900895AF
:100B2000CF93DF93DB01AE58BD4F2C91222369F0A8
:100B300024E4269FF001279FF00D1124E656FC4F78
:100B4000EF0119922A95E9F71C9224E4269FF001FF
:100B5000279FF00D1124E656FC4F14821582168251
:100B600017821186108613861286118A108A1786BC
:100B70001686DF91CF9164CE2F923F924F925F9273
:100B80006F927F928F929F92AF92BF92CF92DF929D
:100B9000EF92FF920F931F93CF93DF93CDB7DEB702
:100BA00028970FB6F894DEBF0FBECDBF6B017C0156
:100BB0001A0184E48C9D90018D9D300D11242656E0
:100BC0003C4FF90184819581A681B781892B8A2BBD
:100BD0008B2B09F4B8C0A12CB12C412C512C320123
:100BE00038872F83C90104969A838983D90118967F
:100BF000BC83AB83E981FA8180819181A281B38139
:100C0000481659066A067B0694F5AB81BC81ED91C6
:100C1000FC91EA0DFB1D228133818901812C912CED
:100C200082149304C4F4D801ED91FC91309769F0DB
:100C3000848195812D833E830E947F28F8018081E5
:100C400091810E947F283E812D81FFEF8F1A9F0A9C
:100C50000E5F1F4FE5CFC9010E947F288FEF481A12
:100C6000580A680A780A94E0A90EB11CC3CFAF8174
:100C7000B88518968D919C9119970E947F28EF81D5
:100C8000F88582859385892B59F1A12CB12C812C73
:100C9000912C84E48C9D80018D9D100D11240C55A8
:100CA0001C4F8214930484F4D801ED91FC91EA0D59
:100CB000FB1D848195810E947F28BFEF8B1A9B0AC0
:100CC000EEE0AE0EB11CEDCF84E48C9DF0018D9D65
:100CD000F00D1124E656FC4F828593850E947F28F3
:100CE00084E48C9D90018D9D300D11248901065660
:100CF0001C4FD80150968D919C9151970E947F284E
:100D0000F801868597850E947F28C701B60198DD86
:100D1000C701B60128960FB6F894DEBF0FBECDBF4F
:100D2000DF91CF911F910F91FF90EF90DF90CF90C7
:100D3000BF90AF909F908F907F906F905F904F90FB
:100D40003F902F90EDCE28960FB6F894DEBF0FBEE1
:100D5000CDBFDF91CF911F910F91FF90EF90DF906A
:100D6000CF90BF90AF909F908F907F906F905F904B
:100D70004F903F902F90089524E4269FF001279FE5
:100D8000F00D1124E656FC4F82899389049702974F
:100D900058F485E090E0938B828B8FEF9FEFDC011E
:100DA000828F938FA48FB58F08952F923F924F9289
:100DB0005F926F927F928F929F92AF92BF92CF92EB
:100DC000DF92EF92FF920F931F93CF93DF93CDB7F4
:100DD000DEB7E0970FB6F894DEBF0FBECDBF9AA383
:100DE00089A31B016A012801390184E4849D8001E3
:100DF000859D100D1124980126563C4F7901D9018B
:100E00004D925D926D927C921397AB01C301B2013A
:100E1000B3DEF801E256FC4FD6014D915D916D9124
:100E20007D918D01CA01408351836283738364E0A5
:100E300070E00E94D027F70191878087892B09F401
:100E40009FC11E8E1D8E198E1A8E1B8E1C8EF8A2AF
:100E5000EF8E97012C5F3F4F38A72FA32C5F3F4F9A
:100E60003AA729A7EFA1F8A580819181A281B3813A
:100E7000298D3A8D4B8D5C8D281739074A075B0702
:100E80000CF0E7C0A9A5BAA58D919C912D8D3E8D42
:100E9000280F391F3A8B298BD801ED91FC91EE0F69
:100EA000FF1FA9A1BAA18D919C91E80FF91F808124
:100EB0009181F90191838083D80114962D913D9100
:100EC0004D915C9117972BA33CA34DA35EA3085FA4
:100ED0001F4F62E070E0C1010E94D027E989FA89C2
:100EE00093838283892B09F44BC11D8A1E8A1F8A32
:100EF000188E2D893E894F89588D8BA19CA1ADA15B
:100F0000BEA1281739074A075B070CF08FC0D8012C
:100F1000ED90FC90EE0CFF1CE989FA89C280D38029
:100F2000CE0CDF1C68E070E081E090E00E94D027EA
:100F3000D6018D939C93E989FA8982819381FC0182
:100F4000EE0DFF1DC080D180C114D10409F418C179
:100F5000F80184819581A681B781F6018083918310
:100F6000A283B383085F1F4F181619061A061B06C3
:100F700034F01C8A1B8A812C912C54010CC064E033
:100F800070E00E94D027D60115969C938E931497FB
:100F9000892B79F7F5C0F60180819181A281B38117
:100FA00088169906AA06BB06A4F5F601E480F5802A
:100FB0002B893C89E20EF31EF801DE01119680E1D7
:100FC00001900D928A95E1F7005F1F4FA701BE01C6
:100FD0006F5F7F4FA9A1BAA114968D919C9115972F
:100FE0009BDCF60126813781D70112968D919C9169
:100FF0001397820F931F97838683BFEF8B1A9B0AE9
:10100000AB0ABB0A2B893C892C5F3F4F3C8B2B8B57
:10101000C2CF2D893E894F89588D2F5F3F4F4F4F4B
:101020005F4F2D8B3E8B4F8B588F63CF298D3A8D21
:101030004B8D5C8D2F5F3F4F4F4F5F4F298F3A8F06
:101040004B8F5C8F2D8D3E8D2C5F3F4F3E8F2D8FB4
:1010500009CF6EE070E0C1010E94D027AF8DB8A12A
:101060001B969C938E931A97812C912CA12CB12CBA
:10107000C12CD12C24E4249DC001259D900D112468
:101080009C012C553C4F3A8B298B21E030E0A21477
:10109000B3040CF04DC0D8014D915D916D917D91DF
:1010A0008D01E989FA89E080F180E80CF91C77FD6F
:1010B00067C0D70111963C932E93411551056105E8
:1010C0007105A9F0CA012FA738AB4BA75CA76DA784
:1010D0007EA70E94EA27F701958384832FA538A96C
:1010E0004BA55CA56DA57EA5892B31F449C0D70120
:1010F00015961C921E921497F701538342838481A4
:10110000958197838683918780871386128681E0F5
:1011100090E0452B462B472B11F480E090E0C80E61
:10112000D91EFFEFAF1ABF0A4EE0840E911CAFCF5D
:1011300084E4849D8001859D100D112406561C4F6A
:10114000D8011D961C921E921C97C60133E0880F91
:10115000991F3A95E1F70E94EA27F801918B808B5D
:10116000892B71F0C601880F991F0E94EA27D801C8
:101170001F969C938E931E97892B11F080E005C0DB
:10118000A101C301B201F8DC81E0E0960FB6F8944A
:10119000DEBF0FBECDBFDF91CF911F910F91FF90AA
:1011A000EF90DF90CF90BF90AF909F908F907F9007
:1011B0006F905F904F903F902F9008952F923F92A5
:1011C0004F925F926F927F928F929F92AF92BF9257
:1011D000CF92DF92EF92FF920F931F93CF93DF9303
:1011E000CDB7DEB768970FB6F894DEBF0FBECDBFA0
:1011F0009C8B8B8BDB0149015A0124E4289DC001A3
:10120000299D900D11249C0126563C4F79012D916A
:101210003C911197F701358B248BFC01E055FC4F75
:1012200014964D915D916D917C91179740835183F8
:1012300062837383FC01EC54FC4F18964D915D91D1
:101240006D917C911B974083518362837383FC0172
:10125000E854FC4F1C964D915D916D917C911F97C8
:101260004083518362837383FC01E853FC4F5096A3
:101270005C91509751964C91519752963C91529750
:1012800053962C91539750834183328323838D014E
:101290000C5E1F4F852F942F181619060CF068C08E
:1012A000880F991F880F991F0E94EA27D701D396AC
:1012B0009C938E93D297892B09F4BCC0212C312C9E
:1012C000412C512C32019701225D3F4F3E8B2D8BDB
:1012D0002C5F3F4F388F2F8B2E5F3F4F3A8B298BE0
:1012E000B301A2012FEF421A520A620A720AED8973
:1012F000FE8980819181A281B381481759076A07CD
:101300007B074CF5AF89B88DCD90DC90C20CD31C17
:10131000F801DE01119680E101900D928A95E1F7C6
:10132000005F1F4FA601BE016F5F7F4FEB89FC89F5
:1013300084819581F1DAA989BA898D919C9111975F
:10134000F60122813381820F931F8D939C93F4E0E9
:101350002F0E311CC5CFD701D4968D919C91D59776
:101360000E94EA27F70197AB86AB892B09F462C08C
:10137000F80180819181A281B38124E4289DF0014C
:10138000299DF00D1124E656FC4FAC01BD014D7FA7
:1013900021E030E0452B462B472B11F020E030E0D8
:1013A00033A322A324E4289DF001299DF00D1124EC
:1013B000E656FC4F0197A109B10921E030E0029700
:1013C000A105B10510F020E030E035A324A384E4AA
:1013D000889DF001899DF00D1124CF0180549C4F10
:1013E000D80114964D915D916D917C911797DC0118
:1013F0004D935D936D937C931397E656FC4F868DCA
:10140000978DA0A1B1A1B7FF10C0B095A095909500
:1014100081959F4FAF4FBF4F82AF93AFA4AFB5AF92
:10142000168E178E10A211A20AC012AE13AE14AE01
:1014300015AE05C0C501B40103DA81E001C080E04A
:1014400068960FB6F894DEBF0FBECDBFDF91CF9187
:101450001F910F91FF90EF90DF90CF90BF90AF90D2
:101460009F908F907F906F905F904F903F902F90C4
:101470000895CF92DF92EF92FF92CF93DF93109275
:10148000220424E4269FF001279FF00D1124E65644
:10149000FC4F15A614A620E030E0C12CD12CDF01B2
:1014A0001A96C1E0D0E0C416D506D4F4ED91FC91B3
:1014B0001197E20FF31FE280F3801E141F0454F40F
:1014C000E480F580F782E682F186E0861386128654
:1014D000D183C083EFEFCE1ADE0A225F3F4FE3CF06
:1014E00024E4269FF001279FF00D1124E656FC4FBF
:1014F00013A612A611AE10AEDF01DE961D921D924C
:101500001D921C92139782E090E0938B828BDF9167
:10151000CF91FF90EF90DF90CF90089524E4269F25
:10152000F001279FF00D1124E656FC4F138A128A12
:1015300023CB24E4269FF001279FF00D1124E656CB
:10154000FC4F8289938981309105C8F085309105DF
:1015500018F0059769F008958FEF9FEFDC01828FF7
:10156000938FA48FB58F85E090E0938B828B089545
:101570008FEF9FEFDC01828F938FA48FB58F08953B
:1015800024E4249FF001259FF00D1124E656FC4F22
:101590002EE0AC01249FC001259F900D11240284F0
:1015A000F385E02DE80FF91F81E080932204828506
:1015B000938591878087408551852681378181E099
:1015C00090E04217530711F080E090E09183808310
:1015D00008952F923F924F925F926F927F928F92D7
:1015E0009F92AF92BF92CF92DF92EF92FF920F93B2
:1015F0001F93CF93DF93CDB7DEB7C255D1090FB696
:10160000F894DEBF0FBECDBF21969FAF8EAF21975E
:101610004BA75CA76DA77EA74801590184E4889D6C
:101620008001899D100D1124F801E656FC4F22859A
:10163000338527963FAF2EAF2797828993890297EC
:1016400009F060C186A597A5A0A9B1A9892B8A2B0D
:101650008B2B29F484E090E0938B828B53C1848997
:10166000958921964EAD5FAD21974817590709F02E
:1016700049C186A997A99AAB89AB1EAE1DAE19AE1A
:101680001AAE1BAE1CAE8F01DF019E962996BFAF2E
:10169000AEAF2997F2962B96FFAFEEAF2B9798013E
:1016A000285C3F4F2D963FAF2EAF2D97A8014A5D86
:1016B0005F4F2F965FAF4EAF2F97C801829661960E
:1016C0009FAF8EAF61971A976396BFAFAEAF639728
:1016D0002996EEADFFAD299780819181A281B381DA
:1016E00029AD3AAD4BAD5CAD281739074A075B070A
:1016F0000CF0E7C02B96EEADFFAD2B97808191816A
:101700002DAD3EAD280F391F3EAB2DABD901129642
:101710000D90BC91A02D2396BFAFAEAF2397B69589
:10172000A795B695A7952596BFAFAEAF25972D96F1
:10173000EEADFFAD2D9780819181892B09F496C084
:101740002F96AEADBFAD2F97CD90DD90ED90FC9074
:1017500029A83AA8F9010190F081E02DF8ABEFA794
:1017600018AE1FAA8FA998AD2596AEADBFAD25972F
:101770008A179B070CF07AC06196AEADBFAD61973A
:101780008D919C91892B69F1EFA5F8A9408051803A
:1017900062807380A7019601C301B2010E941827DD
:1017A00087FD0BC0A7019601D1016D917D918D91AF
:1017B0009C910E94622687FD8CC0A7019601C301FF
:1017C000B2010E941827181664F4A7019601F101CE
:1017D00060817181828193810E946226882309F44D
:1017E00078C06396AEADBFAD63978D919C91892B08
:1017F00069F1EFA5F8A94080518062807380A7014C
:101800009601C301B2010E94622687FF0BC0A701A7
:101810009601D1016D917D918D919C910E94182727
:1018200087FF57C0A7019601C301B2010E9462263B
:1018300081110CC0A7019601F10160817181828143
:1018400093810E94182718160CF443C02FA938ADB5
:101850002F5F3F4F38AF2FAB34E0230E311C4FA525
:1018600058A94C5F5F4F58AB4FA77CCFEDA9FEA99D
:101870006081718123964EAD5FAD239789A99AA9A6
:101880000E94172925968EAD9FAD2597880F991F29
:10189000880F991F29A93AA9280F391F3AAB29ABFC
:1018A00089AD9AADABADBCAD0196A11DB11D89AF9F
:1018B0009AAFABAFBCAFADADBEAD1496BEAFADAFE2
:1018C00007CF81E090E0D801D9969C938E93D8976A
:1018D00019C084E4889DF001899DF00D1124E6561D
:1018E000FC4F868D978DA0A1B1A1892B8A2B8B2BC4
:1018F00009F064C284E090E0938B828B86AD97AD53
:1019000093A782A784E4889DF001899DF00D11249E
:10191000E656FC4F828993898230910571F482AD3D
:1019200093ADA4ADB5AD181619061A061B060CF03A
:101930004CC2CC24C394D12C05C0049709F045C2F5
:10194000C12CD12C8EE02196EEADFFAD21978E9F5C
:1019500070018F9FF00C112427962EAD3FAD279775
:10196000E20EF31ED70112964D915C91139741152B
:10197000510509F42AC216968D919C9117979AA742
:1019800089A7FE01319684E1DF011D928A95E9F76E
:10199000898A9A8AAB8ABC8AC114D10409F457C0D7
:1019A00084E4889DF001899DF00D1124E656FC4FDA
:1019B000DF01DE964D905D906D907C9082AD93AD91
:1019C000A4ADB5AD481659066A067B0609F03FC0BE
:1019D000F701648175810084F185E02D8481958112
:1019E000A681B7819C018D8B9E8BAF8BB88F285FB2
:1019F0003F4F3E8B2D8BD70118968D919C91199757
:101A0000280F391F19963C932E93189718968D918D
:101A10009C911997460F571F841B950B97FD06C085
:101A2000860F971F19969C938E93189784E4889D30
:101A3000F001899DF00D1124E852FC4FB1E04B1AE2
:101A400051086108710840825182628273829E014E
:101A50002B5E3F4FAE01475D5F4F64E170E0C70111
:101A60000E94B703082F10E00115110509F091C17C
:101A70008CE090E0A0E0B0E08D839E83AF83B887D8
:101A80009E01235E3F4FAE01475D5F4F64E070E013
:101A9000C7010E94B703082F10E00115110509F0D6
:101AA00078C180E190E0A0E0B0E08D839E83AF83B9
:101AB000B8874D8D5E8DBE01655D7F4F8F8D98A17E
:101AC0000E9417298BA19CA1009761F06D8D7E8DDE
:101AD000EBE2F0E0EC0FFD1F6E0F7F1F49A15AA152
:101AE0000E9417291DA21EA21FA218A621962EAD84
:101AF0003FAD2197220F331F38AF2FAB24E4289D31
:101B0000C001299D900D112486569C4FAC014C5F5D
:101B10005F4F5AAF49AFDC011896BEAFADAF2DA1F4
:101B20003EA14FA158A529AB3AAB4BAB5CABE9AD9D
:101B3000FAAD80819181A281B381281739074A07C4
:101B40005B070CF0CFC0ADADBEADED91FC9189A9A6
:101B50009AA9880F991F880F991FE80FF91FA08174
:101B6000B1818C91882309F4AFC0833009F4ACC0F3
:101B70000280F381E02D2FA938ADE20FF31F4081E1
:101B8000518158AB4FA7452B09F49EC089859A8592
:101B9000AB85BC850196A11DB11D89879A87AB874E
:101BA000BC879E01235E3F4FAE01475D5F4F64E0FF
:101BB00070E0C7010E94B70390E0009709F0E8C009
:101BC0008D819E81AF81B8850496A11DB11D8D8345
:101BD0009E83AF83B8874D8D5E8DBE016B5D7F4F59
:101BE0008F8D98A10E9417298BA19CA1009761F06D
:101BF0006D8D7E8DA5E2B0E0AC0FBD1F6A0F7B1F1F
:101C000049A15AA10E9417291EAA1DAA412C512C94
:101C10003201EFA5F8A980819181A281B381481694
:101C200059066A067B060CF04FC0EFA5F8A9248080
:101C300035802DA93EA9220E331ED10112966D9139
:101C40007C9113979E01235E3F4FAE01475D5F4F2E
:101C5000C7010E94B70390E0009709F099C0F10115
:101C600082819381092E000CAA0BBB0B4D815E81F2
:101C70006F817885840F951FA61FB71F8D839E8364
:101C8000AF83B887608171814D8D5E8D8F8D98A1F6
:101C90000E9417298BA19CA1009759F0D1016D9149
:101CA0007C912D8D3E8D620F731F49A15AA10E9418
:101CB0001729BFEF4B1A5B0A6B0A7B0AEDA9FEA935
:101CC0003496FEABEDABA5CF49A85AA86BA87CA86B
:101CD000FFEF4F1A5F0A6F0A7F0A4DA25EA26FA242
:101CE00078A61DCF89859A85AB85BC85892B8A2BE3
:101CF0008B2B09F44EC08AE190E0A0E0B0E089832C
:101D00009A83AB83BC8321962EAD3FAD2197C90149
:101D1000330FAA0BBB0B8D879E87AF87B88B4D897E
:101D20005E89BE016F5F7F4F8F89988D0E94172952
:101D30008B8D9C8D009761F06D897E8941E050E02C
:101D40004C0F5D1F640F751F498D5A8D0E94172916
:101D500089A59AA5D70117969C938E9316971196ED
:101D60001C921E92CD2889F184E4889DF001899D02
:101D7000F00D1124E852FC4F80819181A281B38142
:101D80000196A11DB11D80839183A283B3831DC0E1
:101D90008C01CD28D1F4012BC1F084E4889DF001A1
:101DA000899DF00D1124E656FC4F81E090E095A747
:101DB00084A785E090E0938B828B07C083E090E05E
:101DC000938B828B81E090E09BCDCE5ADF4F0FB694
:101DD000F894DEBF0FBECDBFDF91CF911F910F9161
:101DE000FF90EF90DF90CF90BF90AF909F908F903B
:101DF0007F906F905F904F903F902F900895CF927B
:101E0000DF92EF92FF920F931F936B017C0184E4AA
:101E10008C9DF0018D9DF00D1124E656FC4F8289BA
:101E20009389009709F450C00197B9F482A593A54E
:101E30009C012F5F3F4F33A722A7092E000CAA0B4E
:101E4000BB0B028D138D248D358D80179107A20752
:101E5000B307D1F5C701B6010CDB84E48C9DF0011A
:101E60008D9DF00D1124E656FC4F828993890397CE
:101E700059F582A593A59C012F5F3F4F33A722A759
:101E8000092E000CAA0BBB0B468D578D60A171A1CA
:101E900084179507A607B707BCF086AD97AD93A743
:101EA00082A784E090E0938B828B82AD93ADA4AD4A
:101EB000B5AD181619061A061B0634F4EE5BFF4F73
:101EC00081E090E0918380831F910F91FF90EF90CC
:101ED000DF90CF90089524E4269FF001279FF00D16
:101EE0001124E656FC4F828993890497B1F482A5A8
:101EF00093A5019693A782A7092E000CAA0BBB0BF2
:101F000046895789608D718D84179507A607B70795
:101F100021F485E090E0938B828B08952F923F927D
:101F20004F925F926F927F928F929F92AF92BF92E9
:101F3000CF92DF92EF92FF920F931F93CF93DF9395
:101F4000CDB7DEB72E970FB6F894DEBF0FBECDBF6C
:101F500049835A836B837C834901442E552E24E4A4
:101F6000249DF001259DF00D1124E656FC4F22889A
:101F700033889101245031091586148622303105A9
:101F800008F0DDC0DC0111961C921E9213961C9283
:101F90001E921297A12CB12C60E070E09F01265F89
:101FA0003F4F38872F837F013CE0E30EF11CDF01B8
:101FB0005096BA87A9879F01225F3F4F3C872B87A6
:101FC000681579050CF06FC0EF81F885A081B181AB
:101FD0009D012A0D3B1D3E872D87D9012D913C91F6
:101FE0001197232B09F059C018960D911C91199740
:101FF0001296ED91FC911397FE83ED8316962D9129
:102000003C911797D7014D915C91DA01E3E0AA0F5B
:10201000BB1FEA95E1F7E985FA85C080D180FD0113
:10202000EC0DFD1D440F551FAB85BC85CD90DC909C
:102030004C0D5D1DDA016D937C93D7014D915C9140
:1020400011974F5F5F4F4D935C9313830283AD8570
:10205000BE851B963C932E931A970217130748F4DC
:10206000201B310B31832083158214821782168244
:1020700014C0AD85BE851496CD90DC9015974D812A
:102080005E814C0D5D1D401B510B518340832C190B
:102090003D0935832483D782C6826F5F7F4FBEE0C0
:1020A000AB0EB11C8DCF24E4249D8001259D100D25
:1020B000112406561C4FF80124853585DC01119644
:1020C0003C932E934089518913965C934E931297BB
:1020D0004685578515965C934E931497232BA1F54F
:1020E000B5E02B16310481F510922204828D938D78
:1020F000A48DB58DAE014F5F5F4F64E070E08F3F00
:102100009F4FAF4FBF4F59F480E290E00E944C1DAB
:1021100069817A818B819C81A40100DA15C08FE1ED
:1021200090E00E944C1DD8019B961C921E929A979B
:1021300081E090E053969C938E93529705C0FC01EA
:1021400011821082138212822E960FB6F894DEBF8F
:102150000FBECDBFDF91CF911F910F91FF90EF90F8
:10216000DF90CF90BF90AF909F908F907F906F90B7
:102170005F904F903F902F900895EF92FF920F93B2
:102180001F93CF93DF937C018B01EA010E94CF1D47
:10219000811121C08091740290917502049711F110
:1021A00083E090E090937502809374021BC0988145
:1021B0009111F0CF28ED38EB45E050E060E070E0A1
:1021C000CB010E945920AE01B801C7010E946720CF
:1021D000C8010E9432208091230490912404892B0D
:1021E00031F3D8CFDF91CF911F910F91FF90EF90F6
:1021F0000895CF93DF9320917402309175022430BB
:10220000310541F0EB010E946720CE01DF91CF91B3
:102210000C943220DF91CF9108950C9479240C9482
:102220006E240C945C240C9442200C940024089599
:1022300060E070E080E090E00C94AA1D0895AF92F9
:10224000BF92CF92DF92EF92FF920F931F93CF93A3
:10225000DF931F921F92CDB7DEB75C0169017A014F
:102260008B0180E090E0C114D104E104F104F1F0AD
:10227000C114D10421E0E206F10410F4A60102C069
:102280004FEF5FEF9E012F5F3F4FB801C5010E94E6
:102290001A258F3F2FEF920749F029813A81C21A00
:1022A000D30AE108F108020F131FDDCF0F900F9042
:1022B000DF91CF911F910F91FF90EF90DF90CF9022
:1022C000BF90AF900895089508951F920F920FB692
:1022D0000F9211240BB60F922F933F934F935F935E
:1022E0006F937F938F939F93AF93BF93EF93FF93DE
:1022F000E0917A02F0917B021995FF91EF91BF91E5
:10230000AF919F918F917F916F915F914F913F918D
:102310002F910F900BBE0F900FBE0F901F9018952E
:102320001F920F920FB60F9211240BB60F922F939C
:102330003F934F935F936F937F938F939F93AF934D
:10234000BF93EF93FF93E0917C02F0917D0219958A
:10235000FF91EF91BF91AF919F918F917F916F917D
:102360005F914F913F912F910F900BBE0F900FBE39
:102370000F901F9018951F920F920FB60F92112475
:102380000BB60F922F933F934F935F936F937F936F
:102390008F939F93AF93BF93EF93FF93E0917E0250
:1023A000F0917F021995FF91EF91BF91AF919F91AD
:1023B0008F917F916F915F914F913F912F910F90EE
:1023C0000BBE0F900FBE0F901F9018951F920F928B
:1023D0000FB60F9211240BB60F922F933F934F938A
:1023E0005F936F937F938F939F93AF93BF93EF937D
:1023F000FF93E0918002F09181021995FF91EF9196
:10240000BF91AF919F918F917F916F915F914F910C
:102410003F912F910F900BBE0F900FBE0F901F900A
:1024200018951F920F920FB60F9211240BB60F92B0
:102430002F933F934F935F936F937F938F939F93CC
:10244000AF93BF93EF93FF93E0917602F091770201
:102450001995FF91EF91BF91AF919F918F917F91CE
:102460006F915F914F913F912F910F900BBE0F9005
:102470000FBE0F901F9018951F920F920FB60F92DC
:1024800011240BB60F922F933F934F935F936F934B
:102490007F938F939F93AF93BF93EF93FF93E091BD
:1024A0007802F09179021995FF91EF91BF91AF9168
:1024B0009F918F917F916F915F914F913F912F915C
:1024C0000F900BBE0F900FBE0F901F9018951F928C
:1024D0000F920FB60F9211240BB60F922F933F93CA
:1024E0004F935F936F937F938F939F93AF93BF931C
:1024F000EF93FF93E0918202F09183021995FF918F
:10250000EF91BF91AF919F918F917F916F915F916B
:102510004F913F912F910F900BBE0F900FBE0F90D8
:102520001F9018951F920F920FB60F9211240BB6A1
:102530000F922F933F934F935F936F937F938F935C
:102540009F93AF93BF93EF93FF93E0918402F09139
:1025500085021995FF91EF91BF91AF919F918F9156
:102560007F916F915F914F913F912F910F900BBE93
:102570000F900FBE0F901F9018951F920F920FB6DD
:102580000F9211242F933F938F939F93AF93BF93F9
:102590008091260490912704A0912804B0912904E9
:1025A0003091250423E0230F2D3720F40196A11D3F
:1025B000B11D05C026E8230F0296A11DB11D209371
:1025C00025048093260490932704A0932804B093B5
:1025D000290480912A0490912B04A0912C04B0919D
:1025E0002D040196A11DB11D80932A0490932B0404
:1025F000A0932C04B0932D04BF91AF919F918F9124
:102600003F912F910F900FBE0F901F9018953FB7DD
:10261000F89480912A0490912B04A0912C04B091FD
:102620002D0426B5A89B05C02F3F19F00196A11DCA
:10263000B11D3FBFBA2FA92F982F8827820F911D58
:10264000A11DB11DBC01CD0142E0660F771F881F9F
:10265000991F4A95D1F708958F929F92AF92BF929A
:10266000CF92DF92EF92FF926B017C01D0DF4B01A2
:102670005C01C114D104E104F104F1F024DEC7DFF0
:10268000DC01CB0188199909AA09BB09883E93404E
:10269000A105B10570F321E0C21AD108E108F108E3
:1026A00088EE880E83E0981EA11CB11CC114D104D1
:1026B000E104F10421F7DDCFFF90EF90DF90CF90A0
:1026C000BF90AF909F908F900895789484B582606A
:1026D00084BD84B5816084BD85B5826085BD85B5C6
:1026E000816085BDEEE6F0E0808181608083E1E875
:1026F000F0E01082808182608083808181608083AD
:10270000E0E8F0E0808181608083E1EBF0E08081AF
:1027100084608083E0EBF0E0808181608083E1E988
:10272000F0E0808182608083808181608083E0E945
:10273000F0E0808181608083E1EAF0E08081826066
:102740008083808181608083E0EAF0E08081816025
:102750008083E1E2F1E0808182608083808181601A
:102760008083E0E2F1E0808181608083EAE7F0E04D
:1027700080818460808380818260808380818160A9
:1027800080838081806880831092C10008958633A1
:1027900008F0865390917B00282F2870977F922B0A
:1027A00090937B0087702091860290E4299F90018E
:1027B0001124822B80937C0080917A008064809326
:1027C0007A0080917A0086FDFCCF8091780020917C
:1027D000790090E0922B089590E0FC013197E2316E
:1027E000F10508F04EC08827EE58FF4F8F4F0C942C
:1027F000B427809180008F7703C0809180008F7D07
:1028000080938000089580918000877FF9CF84B500
:102810008F7702C084B58F7D84BD08958091B0000C
:102820008F7703C08091B0008F7D8093B0000895B2
:10283000809190008F7707C0809190008F7D03C0BA
:1028400080919000877F8093900008958091A000F0
:102850008F7707C08091A0008F7D03C08091A0007A
:10286000877F8093A0000895809120018F7707C013
:10287000809120018F7D03C080912001877F80930C
:1028800020010895CF93DF9390E0FC01E259FE4FC1
:102890002491FC01EC54FE4F8491882361F190E077
:1028A000880F991FFC01EC5EFD4FC591D491FC018E
:1028B000E650FE4FA591B491611109C09FB7F894FD
:1028C0008881209582238883EC912E230BC062306F
:1028D00061F49FB7F8943881822F80958323888391
:1028E000EC912E2B2C939FBF06C08FB7F894E881F4
:1028F0002E2B28838FBFDF91CF9108951F93CF9305
:10290000DF93282F30E0F901E85DFE4F8491F90153
:10291000E259FE4FD491F901EC54FE4FC491CC23FF
:10292000C1F0162F811158DFEC2FF0E0EE0FFF1FE2
:10293000E650FE4FA591B4918FB7F894111105C0E0
:102940009C91ED2FE095E92302C0EC91ED2BEC93E7
:102950008FBFDF91CF911F910895FC01918D228D42
:10296000892F90E0805C9F4F821B91098F7399277C
:102970000895FC01918D828D981731F0828DE80FBA
:10298000F11D858D90E008958FEF9FEF0895FC0174
:10299000918D828D981761F0828DDF01A80FB11D96
:1029A0005D968C91928D9F5F9F73928F90E00895BA
:1029B0008FEF9FEF0895FC01848DDF01A80FB11DFB
:1029C000A35ABF4F2C91848D90E001968F73992765
:1029D000848FA689B7892C93A089B1898C91806452
:1029E0008C93938D848D981306C00288F389E02D13
:1029F00080818F7D80830895CF93DF93EC01888D54
:102A00008823C1F0EA89FB89808185FD05C0A889FA
:102A1000B9898C9186FD0EC00FB607FCF5CF808179
:102A200085FFF2CFA889B9898C9185FFEDCFCE01C2
:102A3000C2DFE8CFDF91CF910895EF92FF920F931D
:102A40001F93CF93DF93EC0181E0888F9B8D8C8D5A
:102A5000981305C0E889F989808185FD23C0F62E89
:102A60000B8D10E00F5F1F4F0F731127E02E8C8D21
:102A7000E8120BC00FB607FCFACFE889F98980810C
:102A800085FFF5CFCE0197DFF2CF8B8DFE01E80FEA
:102A9000F11DE35AFF4FF0820B8FEA89FB89808199
:102AA000806207C0EE89FF896083E889F9898081A7
:102AB0008064808381E090E0DF91CF911F910F913E
:102AC000FF90EF900895CF92DF92EF92FF921F93C5
:102AD000CF93DF93EC016A017B01122FE889F9891A
:102AE00082E080834115514E61057105B1F060E0CF
:102AF00079E08DE390E0A70196010E949227DA0128
:102B0000C9010197A109B109B695A7959795879530
:102B1000AC01411580E15807A8F0E889F9891082D5
:102B200060E874E88EE190E0A70196010E94922788
:102B3000BA01A9014150510961097109769567955A
:102B400057954795EC85FD855083EE85FF8540833D
:102B5000188EEC89FD891083EA89FB898081806168
:102B60008083EA89FB89808188608083EA89FB8988
:102B7000808180688083EA89FB8980818F7D808362
:102B8000DF91CF911F91FF90EF90DF90CF9008954C
:102B90001F920F920FB60F9211240BB60F922F9324
:102BA0008F939F93EF93FF93E0913E04F0913F0446
:102BB0008081E0914404F091450482FD12C090812F
:102BC000809147048F5F8F7320914804821751F0E2
:102BD000E0914704F0E0E25DFB4F958F809347045E
:102BE00001C08081FF91EF919F918F912F910F9064
:102BF0000BBE0F900FBE0F901F9018951F920F9253
:102C00000FB60F9211240BB60F922F933F934F9351
:102C10005F936F937F938F939F93AF93BF93EF9344
:102C2000FF938EE294E0C7DEFF91EF91BF91AF91E9
:102C30009F918F917F916F915F914F913F912F91D4
:102C40000F900BBE0F900FBE0F901F901895EEE2E5
:102C5000F4E01382128288EE93E0A0E0B0E0848377
:102C60009583A683B7838AE193E09183808385EC83
:102C700090E09587848784EC90E09787868780EC46
:102C800090E0918B808B81EC90E0938B828B82EC37
:102C900090E0958B848B86EC90E0978B868B118EE1
:102CA000128E138E148E08951F920F920FB60F92EC
:102CB00011240BB60F922F938F939F93EF93FF9353
:102CC000E091DB04F091DC048081E091E104F0917B
:102CD000E20482FD12C090818091E4048F5F8F73C3
:102CE0002091E504821751F0E091E404F0E0E5530F
:102CF000FB4F958F8093E40401C08081FF91EF9199
:102D00009F918F912F910F900BBE0F900FBE0F9040
:102D10001F9018951F920F920FB60F9211240BB6A9
:102D20000F922F933F934F935F936F937F938F9364
:102D30009F93AF93BF93EF93FF938BEC94E03BDEB5
:102D4000FF91EF91BF91AF919F918F917F916F9183
:102D50005F914F913F912F910F900BBE0F900FBE3F
:102D60000F901F901895EBECF4E01382128288EE1E
:102D700093E0A0E0B0E084839583A683B7838AE1E3
:102D800093E0918380838DEC90E0958784878CEC31
:102D900090E09787868788EC90E0918B808B89EC18
:102DA00090E0938B828B8AEC90E0958B848B8EECF9
:102DB00090E0978B868B118E128E138E148E089551
:102DC0001F920F920FB60F9211240BB60F922F93F2
:102DD0008F939F93EF93FF93E0917805F09179059E
:102DE0008081E0917E05F0917F0582FD12C0908187
:102DF000809181058F5F8F7320918205821751F03A
:102E0000E0918105F0E0E859FA4F958F80938105B4
:102E100001C08081FF91EF919F918F912F910F9031
:102E20000BBE0F900FBE0F901F9018951F920F9220
:102E30000FB60F9211240BB60F922F933F934F931F
:102E40005F936F937F938F939F93AF93BF93EF9312
:102E5000FF9388E695E0AFDDFF91EF91BF91AF91D1
:102E60009F918F917F916F915F914F913F912F91A2
:102E70000F900BBE0F900FBE0F901F901895E8E6B5
:102E8000F5E01382128288EE93E0A0E0B0E0848344
:102E90009583A683B7838AE193E09183808385ED50
:102EA00090E09587848784ED90E09787868780ED12
:102EB00090E0918B808B81ED90E0938B828B82ED03
:102EC00090E0958B848B86ED90E0978B868B118EAE
:102ED000128E138E148E08951F920F920FB60F92BA
:102EE00011240BB60F922F938F939F93EF93FF9321
:102EF000E0911506F09116068081E0911B06F09195
:102F00001C0682FD12C0908180911E068F5F8F7318
:102F100020911F06821751F0E0911E06F0E0EB5F52
:102F2000F94F958F80931E0601C08081FF91EF912C
:102F30009F918F912F910F900BBE0F900FBE0F900E
:102F40001F9018951F920F920FB60F9211240BB677
:102F50000F922F933F934F935F936F937F938F9332
:102F60009F93AF93BF93EF93FF9385E096E023DDAC
:102F7000FF91EF91BF91AF919F918F917F916F9151
:102F80005F914F913F912F910F900BBE0F900FBE0D
:102F90000F901F901895E5E0F6E01382128288EEFC
:102FA00093E0A0E0B0E084839583A683B7838AE1B1
:102FB00093E09183808385E391E09587848784E320
:102FC00091E09787868780E391E0918B808B81E306
:102FD00091E0938B828B82E391E0958B848B86E3E7
:102FE00091E0978B868B118E128E138E148E08951E
:102FF0008F929F92AF92BF92CF92DF92EF92FF9209
:103000000F931F93CF93DF937C018B016C0182E0C0
:10301000C80ED11C4701E5E08E0E911CC0E0D0E047
:10302000F60161916F014AE050E0C801C6D05C0131
:103030006EE2C80167D08A0D9B1DC80FD91FC81446
:10304000D90471F74AE050E0F7016581C801B5D0B5
:103050008C0F9D1FDF91CF911F910F91FF90EF90EB
:10306000DF90CF90BF90AF909F908F900895E2EA4D
:10307000F6E08AE293E091838083128213821482C5
:1030800015820895CF92DF92EF92FF920F931F93D4
:10309000CF93DF936C017A018B01C0E0D0E0CE15B5
:1030A000DF0589F0D8016D918D01D601ED91FC917C
:1030B0000190F081E02DC6011995892B11F47E0154
:1030C00002C02196ECCFC701DF91CF911F910F91E4
:1030D000FF90EF90DF90CF9008956115710579F022
:1030E000FB0101900020E9F73197AF01461B570B18
:1030F000DC01ED91FC910280F381E02D199480E0D8
:1031000090E00895DC01ED91FC910190F081E02DBB
:1031100019944F925F926F927F92EF92FF920F936A
:103120001F93CF93DF93CDB7DEB7A1970FB6F89477
:10313000DEBF0FBECDBF7C01FA01CB0119A2223048
:1031400008F42AE08E010F5D1F4F422E512C612C96
:10315000712CBF01A30192010E949227F901CA01BB
:10316000015011096A3014F4605D01C0695CD80136
:103170006C93232B242B252B61F7B801C701ADDFFE
:10318000A1960FB6F894DEBF0FBECDBFDF91CF91F1
:103190001F910F91FF90EF907F906F905F904F90F5
:1031A00008952115310541F4DC01ED91FC91019068
:1031B000F081E02D642F1994ACCF9A01462F50E096
:1031C00060E070E0EECF8230A9F028F4882349F067
:1031D000813051F00895843021F1E8F0853039F1E3
:1031E000089510926E00089580916F008D7F8093F6
:1031F0006F000895809170008D7F8093700081E052
:103200008093B0008091B100887F84608093B1008A
:103210001092B3000895809171008D7F80937100AA
:103220000895809172008D7F80937200089580913F
:1032300073008D7F809373000895CF93C82F809182
:1032400087028C1307C0EEE2F2E0E4918FEF8093E7
:10325000870201C0EFEF8E2FB6DF60E08C2FCF9199
:103260004DCB1F920F920FB60F9211240BB60F92F7
:103270002F933F934F935F936F937F938F939F937E
:10328000AF93BF93EF93FF938091AB069091AC0601
:10329000A091AD06B091AE06892B8A2B8B2B51F1F4
:1032A0008091A806E091A906F091AA06908189274D
:1032B00080838091AB069091AC06A091AD06B09151
:1032C000AE06181619061A061B06BCF48091AB064A
:1032D0009091AC06A091AD06B091AE060197A10900
:1032E000B1098093AB069093AC06A093AD06B09362
:1032F000AE0603C080918702A0DFFF91EF91BF91DE
:10330000AF919F918F917F916F915F914F913F917D
:103310002F910F900BBE0F900FBE0F901F9018951E
:1033200040E855E260E070E080E090E000C081306D
:10333000910571F01CF4892B39F0089582309105C4
:1033400059F0039769F0089526E08EE294E00BC0EF
:1033500026E08BEC94E007C026E088E695E003C009
:1033600026E085E096E0AFCB1F920F920FB60F924A
:1033700011240BB60F922F933F934F935F936F934C
:103380007F938F939F93AF93BF93EF93FF938FE8B8
:103390009DEF90932501809324010E945425FF9175
:1033A000EF91BF91AF919F918F917F916F915F91BD
:1033B0004F913F912F910F900BBE0F900FBE0F902A
:1033C0001F9018958FE89DEF90932501809324011D
:1033D000A3E7B0E08C918E7F8C93E0E2F1E08081F6
:1033E0008C7F8083E1E2F1E08081877E8083808131
:1033F0008460808380818C7F80838C9181608C93BA
:10340000089581E008956F927F928F929F92AF927C
:10341000BF92CF92DF92EF92FF920F931F93CF93C1
:10342000DF935C017B014A0101E010E00E151F05EE
:1034300064F568018FEFC81AD80AE801CC0FDD1FC8
:10344000C80DD91D6880798061147104E1F06CE2C7
:1034500073E0C3010E942729892B19F4198218826D
:1034600012C06FE273E0C3010E942729892B59F42F
:10347000CE14DF0441F06801E2E0CE0ED11C1982C7
:1034800018821B821A828601D1CF81E0F5018083E8
:10349000B401C7010E94A424F5019283818380E0D6
:1034A00090E0DF91CF911F910F91FF90EF90DF900F
:1034B000CF90BF90AF909F908F907F906F90089526
:1034C0008FEA96E0089580E008950F931F93CF93BD
:1034D000DF938B01BA01E901198218829801012E4C
:1034E000000C440B550BFC01818192810E941F113D
:1034F000019621F01983088380E001C081E0DF910B
:10350000CF911F910F9108950F931F93CF93DF9346
:103510001F921F92CDB7DEB7FB018A01B9019E0150
:103520002F5F3F4FAF01FC01818192810E94BB243C
:10353000019639F089819A81F8019183808380E036
:1035400001C081E00F900F90DF91CF911F910F91FB
:103550000895FC01808108950895089581E0FB019C
:10356000808380E0089508951092D9060895FC01A3
:10357000818192810C949B24CF93DF93CDB7DEB7EA
:103580002A970FB6F894DEBF0FBECDBFAC01CB01BA
:1035900060E070E049835A836B837C83092E000CC2
:1035A000AA0BBB0B8D839E83AF83B8879E01275FD9
:1035B0003F4FAE014F5F5F4F68E070E08091C806FB
:1035C0009091C90682DF811108C081E029853A8582
:1035D0002830310519F480E001C081E02A960FB649
:1035E000F894DEBF0FBECDBFDF91CF9108950F934A
:1035F0001F93CF93DF931F921F92CDB7DEB78B013E
:103600009E012F5F3F4FAC018091C8069091C90683
:103610005CDF811108C081E029813A8120173107E0
:1036200019F480E001C081E00F900F90DF91CF91FD
:103630001F910F910895CF93DF93EC011092CC0668
:103640001092CB061092D8061092D706AC0160E01B
:1036500070E0CB010E948E0AAE0161E070E080E074
:1036600090E00E948E0A8091C8069091C906DF9171
:10367000CF9179CF4F925F926F927F928F929F926C
:10368000AF92BF92CF92DF92EF92FF920F931F9370
:10369000CF93DF931F921F92CDB7DEB79C016C01D1
:1036A00097FF03C087E0C80ED11C43E0D594C794B0
:1036B0004A95E1F7C90168E070E00E947F277C012C
:1036C00089010E5F1F4F8091C6069091C706801733
:1036D00091070CF0DCC08091C4069091C50600975C
:1036E00031F00E947F281092C7061092C606C801CA
:1036F0000E94EA279093C5068093C406892B29F07F
:103700001093C7060093C606C2C0A12CB12CAC14FE
:10371000BD040CF05EC0412C512C320100E010E0E1
:1037200098012353394FAE014F5F5F4F61E070E066
:103730008091C8069091C906E7DE811198C1898100
:103740009A812FEF421A520A620A720A20E942163F
:103750002FE5520621E0620671043CF06091D70625
:103760007091D8068DEE90E02DC0080F191F0A3019
:10377000110551F549E050E060E070E08DEC96E015
:103780000E9446256091D7067091D8068823C1F023
:103790008091D50690E06817790709F0B8CF8EEED2
:1037A00090E0EADE8091D7069091D806019699279D
:1037B0009093D8068093D7068FEFA81AB80AA7CFA0
:1037C0008FEE90E0D9DEA7CF0A3011050CF4A8CF18
:1037D0009ECFEF2809F44BC1C12CD12C760100E01B
:1037E00010E098012353394FAE014F5F5F4F61E006
:1037F00070E08091C8069091C90686DE811137C1BC
:1038000089819A812FEFC21AD20AE20AF20A20E9CC
:10381000C2162FE5D20621E0E206F1043CF06091E9
:10382000D7067091D8068DEE90E02AC0080F191FB8
:103830000A30110539F549E050E060E070E08DECA8
:1038400096E00E9446256091D7067091D80688239D
:10385000A9F08091D50690E06817790709F007C1B3
:103860008EEE90E089DE8091D7069091D806019681
:1038700099279093D8068093D706F9C08FEE90E0F1
:103880007BDEAACF0A3011050CF4ABCFF0C000E00C
:1038900010E00C151D050CF077C0412C512C3201A5
:1038A000A12CB12C480193E0880C991C9A95E1F762
:1038B0002091C4063091C506C4018A0D9B1D280FB6
:1038C000391FAE014F5F5F4F61E070E08091C80625
:1038D0009091C90619DE8111CAC089819A812FEFA2
:1038E000421A520A620A720A20E942162FE552066B
:1038F00021E0620671043CF06091D7067091D80611
:103900008DEE90E034C0A80EB91E8AE0A816B1046E
:10391000A9F549E050E0B4018091C4069091C50634
:103920000E9446256091D7067091D8068823E9F059
:103930008091C4069091C506FC01E80DF91D8085B3
:1039400090E06817790709F0A4CF8EEE90E014DEBE
:103950008091D7069091D806019699279093D80622
:103960008093D7060F5F1F4F94CF8FEE90E004DE59
:10397000412C512C3201A12CB12C9ACF2AE0A21655
:10398000B1040CF495CF85CFE114F10409F46AC0B9
:10399000680183E0CC0CDD1C8A95E1F7812C912C29
:1039A000540100E010E098012353394FAE014F5FFE
:1039B0005F4F61E070E08091C8069091C906A4DD78
:1039C000811155C089819A812FEF821A920AA20A29
:1039D000B20A20E982162FE5920621E0A206B10480
:1039E0003CF06091D7067091D8068DEE90E034C01F
:1039F000080F191F0A30110589F549E050E060E011
:103A000070E08DEC96E00E9446256091D70670919B
:103A1000D8068823F9F08091D50690E068177907D9
:103A200009F58EEE90E0A8DD8091C4069091C50660
:103A3000A7016DEC76E08C0D9D1D0E9417298091E9
:103A4000D7069091D806019699279093D80680932F
:103A5000D70608C08FEE90E08FDDA0CF0A301105A9
:103A60000CF4A1CF8091C4069091C50602C080E0FD
:103A700090E00F900F90DF91CF911F910F91FF90E9
:103A8000EF90DF90CF90BF90AF909F908F907F90FE
:103A90006F905F904F900895CF92DF92EF92FF92D8
:103AA0000F931F93CF93DF931F92CDB7DEB76C01B7
:103AB0007B018A01452B31F0AB0160E070E0C80169
:103AC000E1D78983B701C60157DD81110DC001150A
:103AD000110551F0B701C8018ADD811105C061E00F
:103AE00070E0CE01019683DD0F90DF91CF911F91A1
:103AF0000F91FF90EF90DF90CF900895CF92DF92DB
:103B0000EF92FF92CF93DF93CDB7DEB728970FB632
:103B1000F894DEBF0FBECDBF6B01E12CF12CC98242
:103B2000DA82EB82FC822D833E834F835887AE017D
:103B30004F5F5F4F68E070E0AFDF28960FB6F894F4
:103B4000DEBF0FBECDBFDF91CF91FF90EF90DF9032
:103B5000CF9008950F931F93CF93DF93EC018B01C8
:103B6000AFDC9093C9068093C806009739F0A8018E
:103B7000BE0149DCEC01892B19F40BC0CBE3D3E087
:103B80008091C8069091C906E7DC1092C906109290
:103B9000C806CE01DF91CF911F910F9108958091BA
:103BA000C8069091C906D5CC2F923F924F925F9252
:103BB0006F927F928F929F92AF92BF92CF92DF923D
:103BC000EF92FF920F931F93CF93DF93CDB7DEB7A2
:103BD00069970FB6F894DEBF0FBECDBF2091CC061B
:103BE000222309F426C25D8B4C8B688B798B8A8BE0
:103BF0009B8B9A01AB01BC01CE0101960E948E0FF6
:103C000010E038E0232E312C89819A81181619068C
:103C10000CF00AC21F861E861D861C8689819A8129
:103C2000AC85BD85A817B9070CF0F3C1EB81FC8109
:103C30002E853F85E20FF31F208131813093C3062B
:103C40002093C206848195819093C1068093C0061B
:103C5000428153815093BF064093BE0646815781EF
:103C60005093BD064093BC06820F931F9C01990F91
:103C7000440B550B2E8B3F8B488F598FC12CD12C69
:103C800076012E893F89488D598DC216D306E406E8
:103C9000F50608F0A2C11F826091C2067091C306AA
:103CA0008B01072E000C220B330BD701C6010496A3
:103CB000A11DB11D80179107A207B30728F4E09159
:103CC000BE06F091BF060AC0E4E0F0E0E61BF70B89
:103CD000EC0DFD1D8091BC069091BD06E80FF91F0B
:103CE0004080512C612C712CD701C6010596A11D75
:103CF000B11D80179107A207B30728F4E091BE0613
:103D0000F091BF060AC0E5E0F0E0E61BF70BEC0D12
:103D1000FD1D8091BC069091BD06E80FF91F8081C2
:103D2000582AD701C6010696A11DB11D801791071B
:103D3000A207B30728F4E091BE06F091BF060AC0BF
:103D4000E6E0F0E0E61BF70BEC0DFD1D8091BC06F4
:103D50009091BD06E80FF91F8081682AD701C6013E
:103D60000796A11DB11D80179107A207B30728F47C
:103D7000E091BE06F091BF060AC0E7E0F0E0E61B66
:103D8000F70BEC0DFD1D8091BC069091BD06E80F70
:103D9000F91F8081782A4601570148E0840E911C62
:103DA000A11CB11C081519052A053B0508F4B4C06F
:103DB000C016D106E206F30638F48091BE06909153
:103DC000BF068C0D9D1D09C0C601861B970B209157
:103DD000BC063091BD06820F931F68E070E007DCDF
:103DE000E091C206F091C3069F010F2E000C440B18
:103DF000550BD301C201880D991DAA1DBB1D2817A3
:103E000039074A075B07C8F082169306A406B50671
:103E100038F42091BE063091BF06C601089609C04D
:103E2000C1018E1B9F0B8C0D9D1D2091BC063091F6
:103E3000BD06820F931FB20199C08601BF01685071
:103E400071096C197D0982169306A406B50638F42B
:103E50002091BE063091BF06C601089609C0C10177
:103E60008E1B9F0B8C0D9D1D2091BC063091BD06B5
:103E7000820F931FBCDB8091C2069091C306B101F3
:103E8000681B790B600F711F640D751D8091BC0656
:103E90009091BD06ACDB8091C2069091C306AC0147
:103EA00048505109FA01E01BF10BAC01092E000C3E
:103EB000660B770B84169506A606B70638F4209194
:103EC000BE063091BF06C60108960AC09101281BA4
:103ED000390BC9018C0D9D1D2091BC063091BD068A
:103EE000820F931FAF0160E070E0CCD58F832091EB
:103EF000C2063091C306A101421B530B9A01200F49
:103F0000311F240D351D40E050E0682F8091BC0624
:103F10009091BD06A3D550C0C016D106E206F306A7
:103F2000C8F46C197D098091BE069091BF068C0D76
:103F30009D1D5DDB8091C2069091C306B101681B97
:103F4000790B6C0D7D1D640D751D8091BC069091E3
:103F5000BD060CC0C601861B970B2091BC06309194
:103F6000BD06B201685F7F4F820F931F40DB8091D7
:103F7000C2069091C306AC01092E000C660B770BAC
:103F800084169506A606B70638F42091BE06309131
:103F9000BF06C60108960AC0D101A81BB90BCD0106
:103FA0008C0D9D1D2091BC063091BD06820F931F84
:103FB000A20160E070E066D58F8361E070E0CE0121
:103FC000079615DB182FB8E04B0E511C611C711CB5
:103FD000C40CD51CE61CF71C54CE8C859D85880F1F
:103FE000991FED81FE81E80FF91F488959896A8977
:103FF0007B89808191810E94C00A4C855D854F5FDD
:104000005F4F5D874C878E859F8508969F878E873B
:1040100005CE2C893D89488959896A897B89CE01D9
:1040200001960E948E0FF0CD112319F08C899D8985
:1040300002DB69960FB6F894DEBF0FBECDBFDF91ED
:10404000CF911F910F91FF90EF90DF90CF90BF9095
:10405000AF909F908F907F906F905F904F903F9028
:104060002F900895CF93DF93EC01AC0160E070E0F6
:10407000CB019ADDAE0161E070E080E090E0DF917D
:10408000CF9192CDCF938091C8069091C9061BDA4B
:10409000C82F81110BC060E070E0CB010E94900539
:1040A00061E070E080E090E00E9490058C2FCF915D
:1040B00008950F931F9389019A01AB01BC01809170
:1040C000C8069091C90649DA1F910F9108953F9251
:1040D0004F925F926F927F928F929F92AF92BF9218
:1040E000CF92DF92EF92FF920F931F93CF93DF93C4
:1040F000CDB7DEB767970FB6F894DEBF0FBECDBF62
:104100006C017B015A018091CC06882331F08091AB
:10411000CC06882309F45CC30AC06CEC76E080917D
:10412000C8069091C9061ADA811152C3F0CF809166
:10413000CB061A821982882309F46AC0E0E94E2E60
:10414000EFE55E2E66246394712C00E010E0980188
:104150002E54394FAE014F5F5F4F61E070E08091A8
:10416000C8069091C906D0D9982E81114DC0898179
:104170009A81080F191F0115110509F445C081E046
:10418000481A51086108710839F46091D706709196
:10419000D8068DEE90E030C00A30110589F549E06F
:1041A00050E060E070E082EB96E070D46091D7065A
:1041B0007091D8068823F1F08091BA0690E06817D4
:1041C0007907D9F48EEE90E0D7D988E0E2EBF6E0FB
:1041D000DE01199601900D928A95E1F72091D7069C
:1041E0003091D8062F5F3F4F33273093D806209366
:1041F000D7060AC08FEE90E0BFD91A82198204C098
:104200000A3011050CF4A3CF81E029813A8124C042
:1042100000E010E078E0672E712C29E030E02C0FF0
:104220003D1F200F311FAE014F5F5F4FB301601B79
:10423000710B8091C8069091C90666D9982E298184
:104240003A81811108C0020F131F0115110519F0E1
:104250000830110514F381E0121613060CF080E00B
:104260009110B3C2882309F4B3C28091CB068111A7
:1042700004C019861A861B861C8689859A85AB859B
:10428000BC858031910508F0A3C2FC018827EC575A
:10429000FF4F8F4F69C6D6011696ED91FC91179787
:1042A00080819181A281B38189839A83AB83BC830E
:1042B000AE014F5F5F4F64E070E085E190E07DC14B
:1042C0008D859E85D7D9009731F42FEF3FEFA90157
:1042D00061E070E00EC0FC0180809180A280B3801C
:1042E000A701C501B4010E94390AA501940160E04B
:1042F00070E08DE190E067C28D859E85BBD9009707
:1043000021F42FEF3FEFA90110C0DC018D909D90AB
:10431000AD90BD90AD0195018401B701C6010E9429
:10432000D506A5019401882319F061E070E002C070
:1043300060E070E08BE190E046C28D859E859AD961
:10434000009721F42FEF3FEFA9010FC0FC018190EE
:104350009190A190B190BF01A5019401C6010E9466
:10436000DE08A5019401882319F061E070E002C025
:1043700060E070E08CE190E026C2D6011496ED91E9
:10438000FC91159700811181F80182809380A080B3
:10439000B18060E1462E512C612C712C49825A82E9
:1043A0006B827C8288E090E0A0E0B0E08D839E8309
:1043B000AF83B8879E012F5E3F4FAE014F5F5F4FC7
:1043C00068E070E08091C8069091C9067ED8882385
:1043D00019F000E010E0BAC089899A890897C9F7F6
:1043E000D801ED90FC90B8E0EB0EF11CEE0CFF1C38
:1043F000EE0CFF1CC701EED58C01892B51F34982CD
:104400005A826B827C82C7010F2C000CAA0BBB0B5B
:104410008D839E83AF83B8879E012F5E3F4FAE0191
:104420004F5F5F4F68E070E08091C8069091C906C9
:104430004CD881118BC089899A89089709F086C068
:10444000D6011296ED91FC911397408151816281C2
:104450007381D8014D935D936D937C931397448141
:1044600055816681778114964D935D936D937C930E
:104470001797408551856285738518964D935D9396
:104480006D937C931B9784859585A685B785F801E8
:1044900084879587A687B787108A118A128A138A1C
:1044A00084E090E0A0E0B0E0848B958BA68BB78B86
:1044B0008091740290917502A0E0B0E0808F918F9E
:1044C000A28FB38FC5010B2C000CAA0BBB0B848FE2
:1044D000958FA68FB78FF401D801909680E090E079
:1044E0008A159B0554F44191519160E070E04D9321
:1044F0005D936D937D930196F3CF9E012F5E3F4FA9
:10450000A801B7018091C8069091C9060E94651A5A
:1045100081111CC089899A898E159F05B9F4A7015C
:1045200060E070E0C801AED28B8B9E012F5E3F4FE2
:10453000AE014D5E5F4F61E070E08091C8069091E2
:10454000C9060E94651A81E08093CB06C801679670
:104550000FB6F894DEBF0FBECDBFDF91CF911F9194
:104560000F91FF90EF90DF90CF90BF90AF909F9012
:104570008F907F906F905F904F903F90C0C58D85DA
:104580009E85AF85B8890097A105B10521F481E02A
:104590008093CA061DC16ED8009789F481E090E02F
:1045A000A0E0B0E089839A83AB83BC83AE014F5F08
:1045B0005F4F64E070E082E190E06EDA09C1BC0117
:1045C000C6010E94E30419821A821B821C82AE017A
:1045D0004F5F5F4F64E070E082E190E05DDA81114F
:1045E000F7C0D5CFD6011496ED91FC9115970190A7
:1045F000F081E02D008511858FEF8983011511056C
:1046000009F472C0D8016D907C90A280B38020E044
:1046100030E060E070E080E090E0861597050CF5F2
:10462000F801A281B381A20FB31F1296ED91FC9104
:104630001397EE0FFF1FEA0DFB1D0190F081E02D97
:1046400016960D90BC91A02DEA9FA001EB9F500DF6
:10465000FA9F500D1124640F751F0196285F3F4F7C
:10466000DCCF83E190E00E94BC1A8111B1C0C12C63
:10467000D12CE12CF12CE614F7047CF5D80112962C
:10468000ED91FC911397EC0DFD1D80809180A2812E
:10469000B381AA0FBB1FAA0DBB1D2D913C91868132
:1046A0009781289F2001299F500C389F500C11247E
:1046B000B201C4010E94F71A382E920140E050E086
:1046C0006981C401CBD18983B8E0CB0ED11C3110F4
:1046D0007FC0EFEFEE1AFE0ACECF61E070E0CE01B0
:1046E00001960E94F71A74C060E070E083E190E0E8
:1046F0000E94BC1A6DC040E050E060E070E081E1D3
:1047000090E0CAD9811164C0812C912C5401C5015B
:10471000B4010E94BC0680912204882321F0A701E5
:10472000C501B40141DAA701C501B4010E94BC056D
:104730008A9489288A288B2829F0812C912C54016D
:104740008394E5CF1092CC061092CB061092D80637
:104750001092D7068091C8069091C9060E94B41A9B
:1047600037C081E090E0909324048093230440E0DC
:1047700050E060E070E086E190E01FCF81E0D5017D
:104780008C9326C08D859E850E943A1B009731F43C
:104790002FEF3FEFA90161E070E013C0FC01208121
:1047A000318142815381CA01B9012C8B3D8B4E8BE3
:1047B0005F8B0E94990A2C893D894E895F8960E050
:1047C00070E08EE190E09AD903C0C7010E941B1BE4
:1047D00067960FB6F894DEBF0FBECDBFDF91CF91C5
:1047E0001F910F91FF90EF90DF90CF90BF90AF900F
:1047F0009F908F907F906F905F904F903F90089523
:10480000CF92DF92EF92FF92CF93DF93EC01C12C16
:10481000D12C7601C701B6010E94BC06AE01C701CA
:10482000B601C2D9AE01C701B6010E94BC05809194
:10483000C4069091C506009729F061D41092C50670
:104840001092C406CA94CD28CE28CF2829F0C12CB6
:10485000D12C7601C394DECF8091CB06882359F00A
:1048600040E050E060E070E084E190E015D9F82E7F
:104870001092CB0601C0F12C8091CC06882341F028
:104880001092CC0681E090E09093750280937402C0
:104890008091C8069091C9060E94B71A8091C806F7
:1048A0009091C9060E94AC1A8F2DDF91CF91FF9095
:1048B000EF90DF90CF900895CF93DF93EC01AC01A0
:1048C00060E070E0CB010E94FF0EAE0161E070E09D
:1048D00080E090E0DF91CF910C94FF0E60E070E0FB
:1048E000CB010E946B0F61E070E080E090E00C94DF
:1048F0006B0FCF92DF92EF92FF920F931F93CF93A4
:10490000DF93EC016A017B0100E010E098010E9456
:10491000E90A01E010E020E030E0B701A601CE0195
:104920000E94E90ADF91CF911F910F91FF90EF90C4
:10493000DF90CF90089568EE73E080E090E00E94F1
:104940002C1380E090E0089526E040E050E16EE016
:1049500070E08EE294E00E9463158EE294E00E9483
:10496000AD14892B29F08EE294E00E94C714F5CF94
:1049700080E090E00895AF92BF92CF92DF92EF92E5
:10498000FF920F931F93CF93DF931F921F92CDB788
:10499000DEB77A018901F901118210828EE294E07A
:1049A00069837A830E94AD1469817A81892B99F198
:1049B0005B01DD24D39485E6C82E8091D906811150
:1049C00024C08EE294E00E94C71485369105A9F7B1
:1049D000D092D906F501C1925F01F80180819181E1
:1049E000019691838083E9CF8EE294E00E94C71400
:1049F0008F3FFFEF9F0749F0F50181935F01F801B9
:104A000080819181019691838083F80180819181D9
:104A10008E159F0548F380E090E00F900F90DF9196
:104A2000CF911F910F91FF90EF90DF90CF90BF90AB
:104A3000AF9008950F931F93CF93DF93EA018901FD
:104A40008EE294E00E944218F801D183C08380E096
:104A500090E0DF91CF911F910F910895DC01A40F99
:104A6000B51F240F351FAD01481B590B42175307C3
:104A700038F4ED91E627F0E0E15DFD4F6491F3CF6E
:104A8000862F08959A01AB016FEFE8CFCF93FC0119
:104A9000E60FF71FE40FF51FC081F4DF91E0C813A4
:104AA00090E0892FCF9108958091DB0691E0980FD7
:104AB0009093DB06882349F021E030E03093DD0657
:104AC0002093DC068093DB06089578940E94F6011B
:104AD000F8948091DB0681508093DB060C940F11D3
:104AE000FF920F931F93CF93DF931F921F92CDB727
:104AF000DEB7FF24F394FA820E9465130E94901996
:104B00000091140310911503F8011182108260E0E6
:104B100070E080E090E00E9418110E94EA02789410
:104B2000C80186960E94171181E090E00E9413113F
:104B30001982AE014F5F5F4F61E070E0F801828142
:104B400093810E94BD108981882311F0F801F2A69B
:104B50000E941E11F8940E94E219F801808191814F
:104B6000892B19F481E092A5911180E08A837894D1
:104B70007894FF24F3948A81882371F11982AE011D
:104B80004F5F5F4F61E070E0F801828193810E9486
:104B9000F9108981882311F0F801F2A6F8018081CB
:104BA0009181892B31F481E092A5911103C080E0BD
:104BB00001C081E08093DA069091DA0681E09111DC
:104BC00080E08A838A81882319F00E94011A02C03A
:104BD00080E090E08A83CFCF0E94AF0381E090E035
:104BE0000E941511F89480E090E00F900F90DF91F3
:104BF000CF911F910F91FF9008955058BB27AA277E
:104C00000ED0DCC0CDD030F0D2D020F031F49F3FB8
:104C100011F41EF4C2C00EF4E095E7FBB8C0E92F12
:104C2000DED080F3BA17620773078407950718F080
:104C300071F49EF5F6C00EF4E0950B2EBA2FA02D60
:104C40000B01B90190010C01CA01A0011124FF2739
:104C5000591B99F0593F50F4503E68F11A16F04034
:104C6000A22F232F342F4427585FF3CF4695379533
:104C70002795A795F0405395C9F77EF41F16BA0BF8
:104C8000620B730B840BBAF09150A1F0FF0FBB1FA6
:104C9000661F771F881FC2F70EC0BA0F621F731FEF
:104CA000841F48F4879577956795B795F7959E3F4C
:104CB00008F0B3CF9395880F08F09927EE0F9795DA
:104CC0008795089540D008F481E00895E89409C0DC
:104CD00097FB3EF490958095709561957F4F8F4F2F
:104CE0009F4F9923A9F0F92F96E9BB279395F69545
:104CF000879577956795B795F111F8CFFAF4BB0FC3
:104D000011F460FF1BC06F5F7F4F8F4F9F4F16C026
:104D1000882311F096E911C0772321F09EE8872FB0
:104D2000762F05C0662371F096E8862F70E060E06C
:104D30002AF09A95660F771F881FDAF7880F9695E5
:104D4000879597F90895990F0008550FAA0BE0E889
:104D5000FEEF16161706E807F907C0F0121613063D
:104D6000E407F50798F0621B730B840B950B39F47D
:104D70000A2661F0232B242B252B21F408950A26E3
:104D800009F4A140A6958FEF811D811D089597F923
:104D90009F6780E870E060E008959FEF80EC0895E1
:104DA00000240A941616170618060906089500240A
:104DB0000A9412161306140605060895092E039484
:104DC000000C11F4882352F0BB0F40F4BF2B11F4F8
:104DD00060FF04C06F5F7F4F8F4F9F4F089557FD57
:104DE0009058440F551F59F05F3F71F04795880F59
:104DF00097FB991F61F09F3F79F0879508951216F0
:104E000013061406551FF2CF4695F1DF08C016169B
:104E100017061806991FF1CF86957105610508944C
:104E20000895E894BB2766277727CB0197F9089563
:104E30008ADF08F48FEF08950BD0C0CFB1DF28F0E0
:104E4000B6DF18F0952309F0A2CFA7CF1124EACF3F
:104E5000C6DFA0F3959FD1F3950F50E0551F629FD9
:104E6000F001729FBB27F00DB11D639FAA27F00DC3
:104E7000B11DAA1F649F6627B00DA11D661F829FEA
:104E80002227B00DA11D621F739FB00DA11D621FCF
:104E9000839FA00D611D221F749F3327A00D611DEC
:104EA000231F849F600D211D822F762F6A2F1124CE
:104EB0009F5750408AF0E1F088234AF0EE0FFF1F21
:104EC000BB1F661F771F881F91505040A9F79E3F58
:104ED000510570F05CCFA6CF5F3FECF3983EDCF35A
:104EE000869577956795B795F795E7959F5FC1F795
:104EF000FE2B880F911D9695879597F9089597FB3E
:104F0000072E16F4009406D077FD08D035D007FCA4
:104F100005D03EF4909581959F4F089570956195C9
:104F20007F4F0895A1E21A2EAA1BBB1BFD010DC0E5
:104F3000AA1FBB1FEE1FFF1FA217B307E407F50749
:104F400020F0A21BB30BE40BF50B661F771F881F25
:104F5000991F1A9469F760957095809590959B01BB
:104F6000AC01BD01CF010895EE0FFF1F881F8BBF5D
:104F70000790F691E02D1994AA1BBB1B51E107C0C5
:104F8000AA1FBB1FA617B70710F0A61BB70B881FD9
:104F9000991F5A95A9F780959095BC01CD01089568
:104FA0000F931F93CF93DF93869F8001879F100DF0
:104FB000969F100D1124C8010DD0EC01009721F02F
:104FC000A80160E070E03CD1CE01DF91CF911F914C
:104FD0000F910895CF93DF938230910510F482E012
:104FE00090E0E0912A07F0912B0720E030E0C0E04C
:104FF000D0E0309711F14081518148175907C0F036
:105000004817590761F482819381209719F09B8397
:105010008A832BC090932B0780932A0726C02115E3
:10502000310519F04217530718F49A01BE01DF0148
:10503000EF010280F381E02DDCCF2115310509F16C
:10504000281B390B2430310590F412968D919C91D8
:1050500013976115710521F0FB019383828304C0CE
:1050600090932B0780932A07FD01329644C0FD01DF
:10507000E20FF31F81939193225031092D933C93BA
:105080003AC02091280730912907232B41F4209121
:1050900002023091030230932907209328072091C0
:1050A0000002309101022115310541F42DB73EB7C0
:1050B0004091040250910502241B350BE091280712
:1050C000F0912907E217F307A0F42E1B3F0B2817D6
:1050D000390778F0AC014E5F5F4F2417350748F071
:1050E0004E0F5F1F50932907409328078193919398
:1050F00002C0E0E0F0E0CF01DF91CF9108950F937F
:105100001F93CF93DF93009709F48CC0FC01329773
:105110001382128200912A0710912B0701151105A5
:1051200081F420813181820F931F209128073091D3
:1051300029072817390779F5F0932907E0932807FD
:1051400071C0D80140E050E0AE17BF0750F412968E
:105150002D913C911397AD012115310509F1D9012C
:10516000F3CF9D01DA013383228360817181860F41
:10517000971F8217930769F4EC0128813981260F64
:10518000371F2E5F3F4F318320838A819B8193831A
:105190008283452B29F4F0932B07E0932A0742C022
:1051A0001396FC93EE931297ED01499159919E014C
:1051B000240F351FE217F30771F480819181840F6A
:1051C000951F029611969C938E93828193811396DC
:1051D0009C938E931297E0E0F0E0D80112968D91A7
:1051E0009C911397009719F0F8018C01F6CF8D91DF
:1051F0009C9198012E5F3F4F820F931F20912807AB
:10520000309129072817390769F4309729F410924B
:105210002B0710922A0702C01382128210932907CB
:1052200000932807DF91CF911F910F910895FB0103
:10523000DC0102C001900D9241505040D8F7089512
:10524000DC0101C06D9341505040E0F70895FB012F
:10525000DC018D91019080190110D9F3990B08950B
:04526000F894FFCFF0
:1052640000002C0780000100000001000E026E0205
:1052740000000000010003001A02090705000000F5
:1052840001000B070E0000000100270708000000C2
:1052940001009C02A302AD02AC02B502B402BE023C
:1052A400BD02C602D002DB02E102EB02F4020803F3
:1052B40004000400010001000200020004000400D4
:1052C4000100040002000200040008001C000000A9
:1052D40080BF01010100641164116411641164113F
:1052E40064116411641101FF53696D756C61746913
:1052F4006F6E2066696E6973686564007265616CBF
:105304005F54007265616C33325F540075696E746A
:10531400385F540075696E7431365F540075696E78
:105324007433325F5400626F6F6C65616E5F54005A
:1053340066636E5F63616C6C5F5400696E745F5486
:1053440000706F696E7465725F5400616374696F95
:105354006E5F540074696D65725F75696E74333283
:105364005F706169725F54006F66643366796A3294
:1053740068630001DE06000000001D154218AD142C
:10538400C714B914FC1400000000F8172D77002D81
:1053940069676E6F72652D61726700436F756C6427
:1053A400206E6F742063726561746520657874651E
:1053B400726E616C206D6F64652075736572206414
:1053C4006174612E20204F7574206F66206D656DA9
:0653D4006F72792E0A0041
:00000001FF
